:100000000C942A000C9447000C9447000C94470071
:100010000C9447000C9447000C9447000C94470044
:100020000C9447000C9447000C9447000C94470034
:100030000C9488120C947F150C9430160C94470085
:100040000C9447000C9447000C9447000C94470014
:100050000C94470011241FBECFE5D8E0DEBFCDBF12
:1000600010E0A0E6B0E0EEECFFE202C005900D92D9
:10007000AA36B107D9F720E0AAE6B0E001C01D9288
:10008000A537B207E1F70E94480F0C94E5170C94CE
:100090000000CF93DF9300D000D0CDB7DEB78A83C6
:1000A0006B834C8381E089838B81883008F0A6C004
:1000B0008A81882F90E08330910509F47AC08430DA
:1000C00091050CF099C08230910509F44FC083303E
:1000D00091050CF091C0009719F0019721F18CC0A7
:1000E0008AE390E0FC018081482F8B81282F30E04B
:1000F00081E090E002C0880F991F2A95E2F7809571
:1001000048238C81882F90E02B81222F30E002C081
:10011000880F991F2A95E2F7242F282B8AE390E075
:10012000FC0120836CC087E390E0FC018081482FB4
:100130008B81282F30E081E090E002C0880F991F6A
:100140002A95E2F7809548238C81882F90E02B81B7
:10015000222F30E002C0880F991F2A95E2F7242F42
:10016000282B87E390E0FC01208349C084E390E0E2
:10017000FC018081482F8B81282F30E081E090E0C6
:1001800002C0880F991F2A95E2F7809548238C8139
:10019000882F90E02B81222F30E002C0880F991F1A
:1001A0002A95E2F7242F282B84E390E0FC0120839A
:1001B00026C081E390E0FC018081482F8B81282FAD
:1001C00030E081E090E002C0880F991F2A95E2F7A5
:1001D000809548238C81882F90E02B81222F30E05E
:1001E00002C0880F991F2A95E2F7242F282B81E35C
:1001F00090E0FC01208303C0198201C0198289812B
:100200000F900F900F900F90DF91CF910895CF93A3
:10021000DF9300D00F92CDB7DEB78A836B8381E086
:1002200089838A81882F90E08330910501F18430A1
:1002300091051CF582309105A1F083309105ECF415
:10024000009719F0019739F018C08AE390E02B81EC
:10025000FC01208314C08AE390E02B81FC01208301
:100260000EC08AE390E02B81FC01208308C08AE362
:1002700090E02B81FC01208302C01982000089815B
:100280000F900F900F90DF91CF910895CF93DF9350
:1002900000D000D0CDB7DEB78A836B834C8381E07A
:1002A00089838B81883008F0A6C08A81882F90E0EE
:1002B0008330910509F47AC0843091050CF099C01F
:1002C0008230910509F44FC0833091050CF091C044
:1002D000009719F0019721F18CC08BE390E0FC01AD
:1002E0008081482F8B81282F30E081E090E002C090
:1002F000880F991F2A95E2F7809548238C81882FD3
:1003000090E02B81222F30E002C0880F991F2A95A0
:10031000E2F7242F282B8BE390E0FC0120836CC0B4
:1003200088E390E0FC018081482F8B81282F30E00A
:1003300081E090E002C0880F991F2A95E2F780952E
:1003400048238C81882F90E02B81222F30E002C03F
:10035000880F991F2A95E2F7242F282B88E390E035
:10036000FC01208349C085E390E0FC018081482F97
:100370008B81282F30E081E090E002C0880F991F28
:100380002A95E2F7809548238C81882F90E02B8175
:10039000222F30E002C0880F991F2A95E2F7242F00
:1003A000282B85E390E0FC01208326C082E390E0C7
:1003B000FC018081482F8B81282F30E081E090E084
:1003C00002C0880F991F2A95E2F7809548238C81F7
:1003D000882F90E02B81222F30E002C0880F991FD8
:1003E0002A95E2F7242F282B82E390E0FC0120835A
:1003F00003C0198201C0198289810F900F900F905C
:100400000F90DF91CF910895CF93DF9300D00F929B
:10041000CDB7DEB78A836B8381E089838A81882F99
:1004200090E08330910501F1843091051CF5823014
:100430009105A1F083309105ECF4009719F0019734
:1004400039F018C08BE390E02B81FC01208314C0AD
:1004500088E390E02B81FC0120830EC085E390E0CF
:100460002B81FC01208308C082E390E02B81FC01FA
:10047000208302C01982000089810F900F900F9095
:10048000DF91CF910895CF93DF9300D000D00F92EA
:10049000CDB7DEB78A836B835D834C8381E089832C
:1004A0008B81883008F06DC08A81882F90E083307E
:1004B000910509F44FC0843091050CF060C0823082
:1004C000910599F1833091050CF059C0009719F00E
:1004D0000197B1F054C089E390E0FC018081882F3E
:1004E00090E02B81222F30E002C0959587952A95C8
:1004F000E2F7282F21708C819D81FC01208342C06E
:1005000086E390E0FC018081882F90E02B81222FF0
:1005100030E002C0959587952A95E2F7282F217043
:100520008C819D81FC0120832DC083E390E0FC0140
:100530008081882F90E02B81222F30E002C095959A
:1005400087952A95E2F7282F21708C819D81FC01E7
:10055000208318C080E390E0FC018081882F90E028
:100560002B81222F30E002C0959587952A95E2F7DE
:10057000282F21708C819D81FC01208303C019826A
:1005800001C0198289810F900F900F900F900F90EA
:10059000DF91CF910895CF93DF9300D000D0CDB7F6
:1005A000DEB78A837C836B8381E089838A81882F8D
:1005B00090E08330910549F1843091057CF58230DB
:1005C0009105D1F0833091054CF5009719F0019712
:1005D00051F024C089E390E0FC0120818B819C8153
:1005E000FC0120831DC086E390E0FC0120818B810B
:1005F0009C81FC01208314C083E390E0FC012081F6
:100600008B819C81FC0120830BC080E390E0FC0186
:1006100020818B819C81FC01208302C01982000013
:1006200089810F900F900F900F90DF91CF910895D7
:10063000CF93DF9300D000D0CDB7DEB78A836B8332
:100640004C8381E089838B81883008F0A6C08A8141
:10065000882F90E08330910509F47AC084309105A9
:100660000CF099C08230910509F44FC08330910598
:100670000CF091C0009719F0019721F18CC08BE329
:1006800090E0FC018081482F8B81282F30E081E0B1
:1006900090E002C0880F991F2A95E2F780954823C1
:1006A0008C81882F90E02B81222F30E002C0880FB0
:1006B000991F2A95E2F7242F282B8BE390E0FC0169
:1006C00020836CC088E390E0FC018081482F8B81FF
:1006D000282F30E081E090E002C0880F991F2A9512
:1006E000E2F7809548238C81882F90E02B81222F80
:1006F00030E002C0880F991F2A95E2F7242F282B9B
:1007000088E390E0FC01208349C085E390E0FC0190
:100710008081482F8B81282F30E081E090E002C05B
:10072000880F991F2A95E2F7809548238C81882F9E
:1007300090E02B81222F30E002C0880F991F2A956C
:10074000E2F7242F282B85E390E0FC01208326C0CC
:1007500082E390E0FC018081482F8B81282F30E0DC
:1007600081E090E002C0880F991F2A95E2F78095FA
:1007700048238C81882F90E02B81222F30E002C00B
:10078000880F991F2A95E2F7242F282B82E390E007
:10079000FC01208303C0198201C0198289810F9056
:1007A0000F900F900F90DF91CF910895CF93DF932B
:1007B00000D00F92CDB7DEB78A836B8381E0898347
:1007C0008A81882F90E08330910501F18430910572
:1007D0001CF582309105A1F083309105ECF400976F
:1007E00019F0019739F018C08BE390E02B81FC01E0
:1007F000208314C088E390E02B81FC0120830EC08D
:1008000085E390E02B81FC01208308C082E390E027
:100810002B81FC01208302C01982000089810F9086
:100820000F900F90DF91CF910895CF93DF930F92A8
:10083000CDB7DEB7898389810E94AA0700000F9097
:10084000DF91CF910895CF93DF9300D00F92CDB772
:10085000DEB79B838A8319820EC08981882F90E03E
:100860002A813B81820F931FFC0180810E94AA078D
:1008700089818F5F89838981882F90E02A813B81DC
:10088000820F931FFC018081882339F7000000004C
:100890000F900F900F90DF91CF910895CF93DF933A
:1008A00000D0CDB7DEB789836A8389818E5F982FA8
:1008B0009295990F990F907C8A81890F0E946A0501
:1008C00000000F900F90DF91CF910895CF93DF93A9
:1008D000CDB7DEB781E00E946A050000DF91CF91BD
:1008E0000895CF93DF9300D000D0CDB7DEB78A83D1
:1008F0006B834C8319826B818A810E944E048B81A9
:10090000898306C080E20E94AA0789818F5F89835C
:1009100099818C818917B0F7000000000F900F902B
:100920000F900F90DF91CF910895CF93DF930F92A7
:10093000CDB7DEB789838981813021F48FE00E94B1
:100940006A0506C08981882319F48BE00E946A0534
:1009500000000F90DF91CF910895CF93DF93CDB733
:10096000DEB763970FB6F894DEBF0FBECDBF688BBE
:10097000798B8A8B9B8B81E089831A8288899989FC
:100980009C838B8312C089818F5F89838B819C813B
:100990009C01ADECBCEC0E94BB1696958795969594
:1009A0008795969587959C838B838B819C810A97ED
:1009B00050F7888999899C838B8389818D8338C07E
:1009C0004B815C819A01ADECBCEC0E94BB169C0192
:1009D000369527953695279536952795C901880F21
:1009E000991F880F991F820F931F880F991F9A01D3
:1009F000281B390B8981882F90E00197422F9E0197
:100A00002A5F3F4F820F931FFC0140838B819C81A3
:100A10009C01ADECBCEC0E94BB1696958795969513
:100A20008795969587959C838B838981815089834F
:100A30008981882329F61A8210C08A81882F90E044
:100A40009E012A5F3F4F820F931FFC018081805DD2
:100A50000E94AA078A818F5F8A839A818D81981765
:100A600060F30000000063960FB6F894DEBF0FBE7F
:100A7000CDBFDF91CF910895CF93DF9300D000D009
:100A80000F92CDB7DEB79B838A836C834D8380E45E
:100A90000E946A0519820EC08981882F90E02A8100
:100AA0003B81820F931FFC0180810E94AA078981EC
:100AB0008F5F89838981883078F36D818C810E9472
:100AC0004E0400000F900F900F900F900F90DF9149
:100AD000CF910895CF93DF93CDB7DEB7C756D10935
:100AE0000FB6F894DEBF0FBECDBF8BA740E063E02A
:100AF00082E00E94460140E061E082E00E944601FF
:100B000040E062E082E00E94460185E390E0DC0183
:100B10008C91982F9F708BA5807F292F282B85E3A0
:100B200090E0FC01208341E063E082E00E94460106
:100B300080E090E0A0E0B0E48D8F9E8FAF8FB8A3EF
:100B400020E030E04AEF54E46D8D7E8D8F8D98A1CA
:100B50000E94501768AF79AF8AAF9BAF88AD99AD4F
:100B6000AAADBBAD89A39AA3ABA3BCA320E030E0A0
:100B700040E85FE369A17AA18BA19CA10E94CA16FB
:100B800088232CF481E090E09EA38DA35DC020E03B
:100B90003FEF4FE757E469A17AA18BA19CA10E9486
:100BA0004B1718160CF03EC020E030E040E251E454
:100BB0006D8D7E8D8F8D98A10E9450176CAF7DAF8B
:100BC0008EAF9FAF8CAD9DADAEADBFAD8CAB9DABD1
:100BD000AEABBFAB6CA97DA98EA99FA90E94CF1611
:100BE00024966CAF7DAF8EAF9FAF24972296AEADAB
:100BF000BFAD2297BEA3ADA310C088EC90E098A72C
:100C00008FA38FA198A50197F1F798A78FA3000054
:100C10008DA19EA101979EA38DA38DA19EA1892B3D
:100C200061F71DC069A17AA18BA19CA10E94CF167A
:100C300028966CAF7DAF8EAF9FAF28972696EEAD0E
:100C4000FFAD2697FEA3EDA38DA19EA19AA789A72C
:100C500089A59AA50197F1F79AA789A7000040E016
:100C600063E082E00E94460180E090E0A0E0B0E412
:100C70008F87988BA98BBA8B20E030E04AEF54E441
:100C80006F85788989899A890E9450172C966CAF54
:100C90007DAF8EAF9FAF2C972C968CAD9DADAEAD3A
:100CA000BFAD2C978B8B9C8BAD8BBE8B20E030E047
:100CB00040E85FE36B897C898D899E890E94CA1612
:100CC00088232CF481E090E0988F8F8B61C020E026
:100CD0003FEF4FE757E46B897C898D899E890E949D
:100CE0004B1718160CF042C020E030E040E251E40F
:100CF0006F85788989899A890E94501760966CAFB0
:100D00007DAF8EAF9FAF609760968CAD9DADAEAD61
:100D1000BFAD609788AB99ABAAABBBAB68A979A90B
:100D20008AA99BA90E94CF1664966CAF7DAF8EAF47
:100D30009FAF64976296AEADBFAD6297B88FAF8B31
:100D400010C088EC90E09A8F898F898D9A8D0197D9
:100D5000F1F79A8F898F00008F89988D0197988F6E
:100D60008F8B8F89988D892B61F71DC06B897C894A
:100D70008D899E890E94CF1668966CAF7DAF8EAF2D
:100D80009FAF68976696EEADFFAD6697F88FEF8BD5
:100D90008F89988D9C8F8B8F8B8D9C8D0197F1F710
:100DA0009C8F8B8F000040E063E082E00E94460150
:100DB00040E061E082E00E94460140E062E082E0C3
:100DC0000E94460185E390E0DC018C91282F2F7072
:100DD0008BA5882F90E082959295907F9827807FB1
:100DE0009827282B85E390E0FC01208341E063E015
:100DF00082E00E94460180E090E0A0E0B0E48983B8
:100E00009A83AB83BC8320E030E04AEF54E46981ED
:100E10007A818B819C810E9450176C966CAF7DAF5C
:100E20008EAF9FAF6C976C968CAD9DADAEADBFADE8
:100E30006C978D839E83AF83B88720E030E040E8D5
:100E40005FE36D817E818F8198850E94CA16882319
:100E50002CF481E090E09A87898761C020E03FEF21
:100E60004FE757E46D817E818F8198850E944B17F3
:100E700018160CF042C020E030E040E251E46981F5
:100E80007A818B819C810E945017A0966CAF7DAFB8
:100E90008EAF9FAFA097A0968CAD9DADAEADBFAD10
:100EA000A0978CA79DA7AEA7BFA76CA57DA58EA573
:100EB0009FA50E94CF16A4966CAF7DAF8EAF9FAF5B
:100EC000A497A296AEADBFADA297BA87A98710C06E
:100ED00088EC90E09C878B878B859C850197F1F748
:100EE0009C878B87000089859A8501979A878987D7
:100EF00089859A85892B61F71DC06D817E818F81DF
:100F000098850E94CF16A8966CAF7DAF8EAF9FAF2D
:100F1000A897A696EEADFFADA697FA87E9878985D3
:100F20009A859E878D878D859E850197F1F79E878F
:100F30008D87000040E063E082E00E9446010000EF
:100F4000C959DF4F0FB6F894DEBF0FBECDBFDF919A
:100F5000CF910895CF93DF93CDB7DEB7C756D109B0
:100F60000FB6F894DEBF0FBECDBF8BA740E063E0A5
:100F700082E00E94460141E061E082E00E94460179
:100F800040E062E082E00E94460185E390E0DC01FF
:100F90008C91982F9F708BA5807F292F282B85E31C
:100FA00090E0FC01208341E063E082E00E94460182
:100FB00080E090E0A0E0B0E48D8F9E8FAF8FB8A36B
:100FC00020E030E04AEF54E46D8D7E8D8F8D98A146
:100FD0000E94501768AF79AF8AAF9BAF88AD99ADCB
:100FE000AAADBBAD89A39AA3ABA3BCA320E030E01C
:100FF00040E85FE369A17AA18BA19CA10E94CA1677
:1010000088232CF481E090E09EA38DA35DC020E0B6
:101010003FEF4FE757E469A17AA18BA19CA10E9401
:101020004B1718160CF03EC020E030E040E251E4CF
:101030006D8D7E8D8F8D98A10E9450176CAF7DAF06
:101040008EAF9FAF8CAD9DADAEADBFAD8CAB9DAB4C
:10105000AEABBFAB6CA97DA98EA99FA90E94CF168C
:1010600024966CAF7DAF8EAF9FAF24972296AEAD26
:10107000BFAD2297BEA3ADA310C088EC90E098A7A7
:101080008FA38FA198A50197F1F798A78FA30000D0
:101090008DA19EA101979EA38DA38DA19EA1892BB9
:1010A00061F71DC069A17AA18BA19CA10E94CF16F6
:1010B00028966CAF7DAF8EAF9FAF28972696EEAD8A
:1010C000FFAD2697FEA3EDA38DA19EA19AA789A7A8
:1010D00089A59AA50197F1F79AA789A7000040E092
:1010E00063E082E00E94460180E090E0A0E0B0E48E
:1010F0008F87988BA98BBA8B20E030E04AEF54E4BD
:101100006F85788989899A890E9450172C966CAFCF
:101110007DAF8EAF9FAF2C972C968CAD9DADAEADB5
:10112000BFAD2C978B8B9C8BAD8BBE8B20E030E0C2
:1011300040E85FE36B897C898D899E890E94CA168D
:1011400088232CF481E090E0988F8F8B61C020E0A1
:101150003FEF4FE757E46B897C898D899E890E9418
:101160004B1718160CF042C020E030E040E251E48A
:101170006F85788989899A890E94501760966CAF2B
:101180007DAF8EAF9FAF609760968CAD9DADAEADDD
:10119000BFAD609788AB99ABAAABBBAB68A979A987
:1011A0008AA99BA90E94CF1664966CAF7DAF8EAFC3
:1011B0009FAF64976296AEADBFAD6297B88FAF8BAD
:1011C00010C088EC90E09A8F898F898D9A8D019755
:1011D000F1F79A8F898F00008F89988D0197988FEA
:1011E0008F8B8F89988D892B61F71DC06B897C89C6
:1011F0008D899E890E94CF1668966CAF7DAF8EAFA9
:101200009FAF68976696EEADFFAD6697F88FEF8B50
:101210008F89988D9C8F8B8F8B8D9C8D0197F1F78B
:101220009C8F8B8F000040E063E082E00E944601CB
:1012300041E061E082E00E94460140E062E082E03D
:101240000E94460185E390E0DC018C91282F2F70ED
:101250008BA5882F90E082959295907F9827807F2C
:101260009827282B85E390E0FC01208341E063E090
:1012700082E00E94460180E090E0A0E0B0E4898333
:101280009A83AB83BC8320E030E04AEF54E4698169
:101290007A818B819C810E9450176C966CAF7DAFD8
:1012A0008EAF9FAF6C976C968CAD9DADAEADBFAD64
:1012B0006C978D839E83AF83B88720E030E040E851
:1012C0005FE36D817E818F8198850E94CA16882395
:1012D0002CF481E090E09A87898761C020E03FEF9D
:1012E0004FE757E46D817E818F8198850E944B176F
:1012F00018160CF042C020E030E040E251E4698171
:101300007A818B819C810E945017A0966CAF7DAF33
:101310008EAF9FAFA097A0968CAD9DADAEADBFAD8B
:10132000A0978CA79DA7AEA7BFA76CA57DA58EA5EE
:101330009FA50E94CF16A4966CAF7DAF8EAF9FAFD6
:10134000A497A296AEADBFADA297BA87A98710C0E9
:1013500088EC90E09C878B878B859C850197F1F7C3
:101360009C878B87000089859A8501979A87898752
:1013700089859A85892B61F71DC06D817E818F815A
:1013800098850E94CF16A8966CAF7DAF8EAF9FAFA9
:10139000A897A696EEADFFADA697FA87E98789854F
:1013A0009A859E878D878D859E850197F1F79E870B
:1013B0008D87000040E063E082E00E94460100006B
:1013C000C959DF4F0FB6F894DEBF0FBECDBFDF9116
:1013D000CF9108950F931F93CF93DF93CDB7DEB7CF
:1013E000CC5CD1090FB6F894DEBF0FBECDBF6FEF56
:1013F00082E00E94070141E061E082E00E94490032
:1014000041E062E082E00E94490041E063E082E066
:101410000E9449009E01295B3F4F80E090E0A0EFD1
:10142000B1E4F90180839183A283B3838E01055BCC
:101430001F4FCE01895B9F4F20E030E04AEF54E41C
:10144000DC016D917D918D919C910E945017E196E8
:101450006CAF7DAF8EAF9FAFE197E1962CAD3DAD08
:101460004EAD5FADE197D8012D933D934D935C93C5
:101470001397CE01855B9F4F20E030E040E85FE3AB
:10148000FC0160817181828193810E94CA16882348
:101490004CF4CE01815B9F4F21E030E0DC012D93C5
:1014A0003C9392C0CE01855B9F4F20E03FEF4FE71A
:1014B00057E4FC0160817181828193810E944B1706
:1014C00018160CF067C0CE01895B9F4F20E030E01A
:1014D00040E251E4DC016D917D918D919C910E94DF
:1014E0005017E5966CAF7DAF8EAF9FAFE597E59651
:1014F0002CAD3DAD4EAD5FADE597AD962CAF3DAF9C
:101500004EAF5FAFAD978E01015B1F4FAD966CADD7
:101510007DAD8EAD9FADAD970E94CF16E9966CAFB5
:101520007DAF8EAF9FAFE997E796EEADFFADE79742
:10153000D801ED93FC9325C0CE018F5A9F4F28EC24
:1015400030E0DC012D933C93CE018F5A9F4FFC017C
:10155000808191810197F1F79E012F5A3F4FD90168
:101560008D939C930000CE01815B9F4F9E01215B78
:101570003F4FF9012081318121503109DC012D9348
:101580003C93CE01815B9F4FFC0180819181892B2F
:1015900099F635C08E01015B1F4FCE01855B9F4FD1
:1015A000DC016D917D918D919C910E94CF16ED96FD
:1015B0006CAF7DAF8EAF9FAFED97EB962EAD3FAD8D
:1015C000EB97F80131832083CE018D5A9F4F9E0106
:1015D000215B3F4FD9012D913C91FC013183208348
:1015E000CE018D5A9F4FDC018D919C910197F1F7AF
:1015F0009E012D5A3F4FF90191838083000083E3C0
:101600000E946A0580E090E0A0E0B0E489AF9AAF64
:10161000ABAFBCAF20E030E04AEF54E469AD7AAD47
:101620008BAD9CAD0E945017C358DF4F6883798300
:101630008A839B83CD57D040CE01CD96C358DF4FD0
:10164000288139814A815B81CD57D040DC012D93BF
:101650003D934D935C93139720E030E040E85FE3C7
:10166000CE01CD96FC0160817181828193810E94BF
:10167000CA1688234CF4CE018F5B9F4F21E030E0E7
:10168000DC012D933C9398C020E03FEF4FE757E4F7
:10169000CE01CD96FC0160817181828193810E948F
:1016A0004B1718160CF06BC020E030E040E251E41C
:1016B00069AD7AAD8BAD9CAD0E945017CF57DF4F0F
:1016C000688379838A839B83C158D040CF57DF4F8B
:1016D000288139814A815B81C158D040A9962CAFBD
:1016E0003DAF4EAF5FAFA9978E010F5B1F4FA9961D
:1016F0006CAD7DAD8EAD9FADA9970E94CF16CB5737
:10170000DF4F688379838A839B83C558D040CB574A
:10171000DF4FE881F981C558D040D801ED93FC93A3
:1017200025C0CE018D5B9F4F28EC30E0DC012D936E
:101730003C93CE018D5B9F4FFC018081918101978D
:10174000F1F79E012D5B3F4FD9018D939C930000D3
:10175000CE018F5B9F4F9E012F5B3F4FF901208190
:10176000318121503109DC012D933C93CE018F5BF7
:101770009F4FFC0180819181892B99F638C08E01A1
:101780000F5B1F4FCE01CD96DC016D917D918D9148
:101790009C910E94CF16C757DF4F688379838A8355
:1017A0009B83C958D040C757DF4F28813981C9581A
:1017B000D040F80131832083CE018B5B9F4F9E0187
:1017C0002F5B3F4FD9012D913C91FC013183208348
:1017D000CE018B5B9F4FDC018D919C910197F1F7BE
:1017E0009E012B5B3F4FF90191838083000082E3D0
:1017F0000E946A0580E090E0A0E0B0E48BA79CA77F
:10180000ADA7BEA720E030E04AEF54E46BA57CA56D
:101810008DA59EA50E945017C357DF4F688379831B
:101820008A839B83CD58D040C357DF4F28813981AD
:101830004A815B81CD58D0402FA738AB49AB5AAB1A
:1018400020E030E040E85FE36FA578A989A99AA974
:101850000E94CA1688232CF481E090E09CAB8BABED
:1018600071C020E03FEF4FE757E46FA578A989A941
:101870009AA90E944B1718160CF04EC020E030E0D9
:1018800040E251E46BA57CA58DA59EA50E94501752
:10189000CF56DF4F688379838A839B83C159D040B9
:1018A000CF56DF4F88819981AA81BB81C159D04031
:1018B000A5968CAF9DAFAEAFBFAFA597A5966CAD0B
:1018C0007DAD8EAD9FADA5970E94CF16CB56DF4F55
:1018D000688379838A839B83C559D040CB56DF4F79
:1018E000A881B981C559D040BCABABAB10C088EC66
:1018F00090E09EAB8DAB8DA99EA90197F1F79EABB1
:101900008DAB00008BA99CA901979CAB8BAB8BA9DD
:101910009CA9892B61F721C06FA578A989A99AA9EB
:101920000E94CF16C756DF4F688379838A839B83D3
:10193000C959D040C756DF4FE881F981C959D04015
:10194000FCABEBAB8BA99CA998AF8FAB8FA998ADE3
:101950000197F1F798AF8FAB00008CE20E946A0507
:1019600080E090E0A0E0B0E48D8F9E8FAF8FB8A3B1
:1019700020E030E04AEF54E46D8D7E8D8F8D98A18C
:101980000E945017C356DF4F688379838A839B83F5
:10199000CD59D040C356DF4F288139814A815B81C0
:1019A000CD59D04029A33AA34BA35CA320E030E05B
:1019B00040E85FE369A17AA18BA19CA10E94CA16AD
:1019C00088232CF481E090E09EA38DA371C020E0D9
:1019D0003FEF4FE757E469A17AA18BA19CA10E9438
:1019E0004B1718160CF04EC020E030E040E251E4F6
:1019F0006D8D7E8D8F8D98A10E945017CF55DF4F32
:101A0000688379838A839B83C15AD040CF55DF4F47
:101A100088819981AA81BB81C15AD040A1968CAF9F
:101A20009DAFAEAFBFAFA197A1966CAD7DAD8EADB2
:101A30009FADA1970E94CF16CB55DF4F6883798366
:101A40008A839B83C55AD040CB55DF4FA881B9818B
:101A5000C55AD040BEA3ADA310C088EC90E098A7B3
:101A60008FA38FA198A50197F1F798A78FA30000E6
:101A70008DA19EA101979EA38DA38DA19EA1892BCF
:101A800061F721C069A17AA18BA19CA10E94CF1608
:101A9000C755DF4F688379838A839B83C95AD040B7
:101AA000C755DF4FE881F981C95AD040FEA3EDA3A5
:101AB0008DA19EA19AA789A789A59AA50197F1F75B
:101AC0009AA789A700008FE00E946A0580E090E055
:101AD000A0E0B0E48F87988BA98BBA8B20E030E030
:101AE0004AEF54E46F85788989899A890E94501752
:101AF000C355DF4F688379838A839B83CD5AD04057
:101B0000C355DF4F288139814A815B81CD5AD0404E
:101B10002B8B3C8B4D8B5E8B20E030E040E85FE30D
:101B20006B897C898D899E890E94CA1688232CF432
:101B300081E090E0988F8F8B71C020E03FEF4FE7FE
:101B400057E46B897C898D899E890E944B171816F2
:101B50000CF04EC020E030E040E251E46F8578891F
:101B600089899A890E945017CF54DF4F68837983FF
:101B70008A839B83C15BD040CF54DF4F888199819A
:101B8000AA81BB81C15BD0406D968CAF9DAFAEAFDB
:101B9000BFAF6D976D966CAD7DAD8EAD9FAD6D9702
:101BA0000E94CF16CB54DF4F688379838A839B834F
:101BB000C55BD040CB54DF4FA881B981C55BD04015
:101BC000B88FAF8B10C088EC90E09A8F898F898D89
:101BD0009A8D0197F1F79A8F898F00008F89988DE0
:101BE0000197988F8F8B8F89988D892B61F721C0F2
:101BF0006B897C898D899E890E94CF16C754DF4FDF
:101C0000688379838A839B83C95BD040C754DF4F45
:101C1000E881F981C95BD040F88FEF8B8F89988D6F
:101C20009C8F8B8F8B8D9C8D0197F1F79C8F8B8F69
:101C3000000081E00E946A0580E090E0A0E0B0E44E
:101C400089839A83AB83BC8320E030E04AEF54E47D
:101C500069817A818B819C810E945017C354DF4F28
:101C6000688379838A839B83CD5BD040C354DF4FE5
:101C7000288139814A815B81CD5BD0402D833E83B1
:101C80004F83588720E030E040E85FE36D817E813C
:101C90008F8198850E94CA1688232CF481E090E0F9
:101CA0009A87898771C020E03FEF4FE757E46D8145
:101CB0007E818F8198850E944B1718160CF04EC0BC
:101CC00020E030E040E251E469817A818B819C819F
:101CD0000E945017CF53DF4F688379838A839B8399
:101CE000C15CD040CF53DF4F88819981AA81BB81ED
:101CF000C15CD04069968CAF9DAFAEAFBFAF699766
:101D000069966CAD7DAD8EAD9FAD69970E94CF1683
:101D1000CB53DF4F688379838A839B83C55CD04034
:101D2000CB53DF4FA881B981C55CD040BA87A98762
:101D300010C088EC90E09C878B878B859C850197F1
:101D4000F1F79C878B87000089859A8501979A8790
:101D5000898789859A85892B61F721C06D817E816C
:101D60008F8198850E94CF16C753DF4F6883798390
:101D70008A839B83C95CD040C753DF4FE881F981D8
:101D8000C95CD040FA87E98789859A859E878D87C7
:101D90008D859E850197F1F79E878D870000000055
:101DA000C453DF4F0FB6F894DEBF0FBECDBFDF9137
:101DB000CF911F910F910895CF93DF93CDB7DEB7E9
:101DC00041E060E083E00E94490041E060E083E0A0
:101DD0000E9446010000DF91CF910895CF93DF93D9
:101DE000CDB7DEB741E060E080E00E94490040E00E
:101DF00060E083E00E9446010000DF91CF910895EA
:101E0000CF93DF93CDB7DEB741E061E083E00E947E
:101E1000490041E061E083E00E9446010000DF915B
:101E2000CF910895CF93DF93CDB7DEB741E061E066
:101E300080E00E94490040E061E083E00E944601AA
:101E40000000DF91CF910895CF93DF93CDB7DEB738
:101E500041E062E083E00E94490041E062E083E00B
:101E60000E9446010000DF91CF910895CF93DF9348
:101E7000CDB7DEB741E062E080E00E94490040E07B
:101E800062E083E00E9446010000DF91CF91089557
:101E9000CF93DF93CDB7DEB70E94EA090E942510E9
:101EA00080916A0067E57FE00E944E11F9CFCF93E1
:101EB000DF930F92CDB7DEB789838981813019F422
:101EC0000E94DC0E1DC08981823019F40E94EE0E42
:101ED00017C08981833019F40E94000F11C08981D5
:101EE000843019F40E94120F0BC08981853019F4D7
:101EF0000E94240F05C08981863011F40E94360F9C
:101F000000000F90DF91CF910895CF93DF9300D021
:101F1000CDB7DEB78A8381E089838DE290E0FC0152
:101F200020818DE290E02F7DFC0120838DE290E006
:101F3000FC0120818DE290E02860FC0120838DE28D
:101F400090E0FC0120818DE290E02460FC01208380
:101F500041E065E081E00E94490040E066E081E008
:101F60000E94490041E067E081E00E94490041E0B1
:101F700064E081E00E94490041E067E081E00E9466
:101F800046018DE290E0FC0120818DE290E020612D
:101F9000FC0120838DE290E0FC0120818DE290E045
:101FA0002E7FFC0120838DE290E0FC0120818DE2F8
:101FB00090E02D7FFC0120838EE290E0FC012081E7
:101FC0008EE290E02E7FFC0120838A818330B0F581
:101FD0008DE290E0FC018081882F90E09C012C7FB5
:101FE00033278A81882F90E083709927282B392BFB
:101FF0008DE290E0FC018081982F822F292F282BE1
:102000008DE290E0FC0120838A81843048F08EE2EA
:1020100090E0FC0120818EE290E02160FC012083B1
:102020008DE290E0FC0120818DE290E02064FC01D3
:10203000208310926C0010926B0001C0198289817C
:102040000F900F90DF91CF910895CF93DF930F9270
:10205000CDB7DEB781E089838DE290E0FC0120817D
:102060008DE290E02F7DFC0120838DE290E0FC0169
:1020700020818DE290E02860FC0120838DE290E0D9
:10208000FC0120818DE290E02460FC01208340E08F
:1020900065E081E00E94490041E066E081E00E9445
:1020A000490040E067E081E00E94490040E064E0D0
:1020B00081E00E9449008DE290E0FC0120818DE2E8
:1020C00090E02F7EFC0120838DE290E0FC012081D6
:1020D0008DE290E02064FC01208310926E0010924B
:1020E0006D0089810F90DF91CF910895CF93DF9399
:1020F00000D00F92CDB7DEB789837B836A838DE2F0
:1021000090E0FC0120818DE290E02F77FC0120839C
:102110008FE290E02981FC01208340E064E081E0CF
:102120000E9446018DE290E0FC0120818DE290E06A
:102130002064FC01208300008EE290E0FC0180819D
:10214000881F8827881F882F90E081709927019722
:1021500099F78FE290E0FC0120818A819B81FC014C
:1021600020838DE290E0FC0120818DE290E02F7BC6
:10217000FC01208341E064E081E00E944601000010
:102180000F900F900F90DF91CF910895CF93DF9331
:1021900000D00F92CDB7DEB789837B836A838DE24F
:1021A00090E0FC0120818DE290E02F77FC012083FC
:1021B0008FE290E02981FC0120838DE290E0FC0118
:1021C00020818DE290E02064FC01208300008EE2FB
:1021D00090E0FC018081881F8827881F882F90E06D
:1021E00081709927019799F78FE290E0FC01208197
:1021F0008A819B81FC0120838DE290E0FC0120819B
:102200008DE290E02F7BFC01208300000F900F9067
:102210000F90DF91CF910895CF93DF9300D00F926D
:10222000CDB7DEB789837B836A83809168008A306B
:1022300071F58FE590E0FC0120818FE590E020684A
:10224000FC0120838A819B8190936C0080936B00BA
:102250008DE290E0FC0120818DE290E02068FC019D
:1022600020838FE290E02981FC01208340E064E03C
:1022700081E00E94460181E0809368008DE290E059
:10228000FC0120818DE290E02064FC0120830000AD
:102290000F900F900F90DF91CF910895CF93DF9320
:1022A00000D00F92CDB7DEB789837B836A8380919C
:1022B00068008A3041F58FE590E0FC0120818FE5D0
:1022C00090E02068FC0120838A819B8190936E00BE
:1022D00080936D008DE290E0FC0120818DE290E022
:1022E0002068FC012083109268008FE290E0298131
:1022F000FC0120838DE290E0FC0120818DE290E0E2
:102300002064FC01208300000F900F900F90DF915C
:10231000CF910895CF93DF93CDB7DEB7A8970FB6CF
:10232000F894DEBF0FBECDBF9A8B898B7C8B6B8BF5
:102330001A821982A1C029893A8989819A81820FDA
:10234000931FDC012C918B899C89BC01822F0E94F8
:102350000C1189819A8101969A83898380E090E0AB
:10236000A0E8BFE38B839C83AD83BE8320E030E095
:102370004AEF54E46B817C818D819E810E945017CD
:10238000698F7A8F8B8F9C8F898D9A8DAB8DBC8D49
:102390008F839887A987BA8720E030E040E85FE321
:1023A0006F81788589859A850E94CA1688232CF4C6
:1023B00081E090E09C878B8754C020E03FEF4FE79F
:1023C00057E46F81788589859A850E944B17181686
:1023D000D4F520E030E040E251E46B817C818D81D6
:1023E0009E810E9450176D8F7E8F8F8F98A38D8D49
:1023F0009E8DAF8DB8A18D8B9E8BAF8BB88F6D8965
:102400007E898F89988D0E94CF1669A37AA38BA3AA
:102410009CA3A9A1BAA1BC87AB8710C088EC90E0AF
:102420009E878D878D859E850197F1F79E878D8785
:1024300000008B859C8501979C878B878B859C856D
:10244000892B61F719C06F81788589859A850E94EB
:10245000CF166DA37EA38FA398A7EDA1FEA1FC8745
:10246000EB878B859C85988B8F878F8598890197C3
:10247000F1F7988B8F87000029893A8989819A81A1
:10248000820F931FDC018C91882309F054CF000048
:102490000000A8960FB6F894DEBF0FBECDBFDF9147
:1024A000CF910895CF93DF9300D000D000D0CDB767
:1024B000DEB79C838B837E836D831A82198213C05F
:1024C0002B813C8189819A81820F931FFC0120819D
:1024D0008D819E81BC01822F0E944E1189819A813B
:1024E00001969A8389832B813C8189819A81820F0D
:1024F000931FFC018081882319F7000000002696B5
:102500000FB6F894DEBF0FBECDBFDF91CF91089517
:102510001F920F920FB60F9211242F933F934F9358
:102520005F936F937F938F939F93AF93BF93EF933B
:10253000FF93CF93DF93CDB7DEB7809168008130F2
:1025400049F580916B0090916C00892B09F442C091
:1025500020916B0030916C008FE290E0FC01808153
:10256000F90109958DE290E0FC0120818DE290E077
:102570002F7BFC0120838DE290E0FC0120818DE225
:1025800090E02F77FC01208341E064E081E00E942D
:10259000460120C0809168008823E1F48DE290E03C
:1025A000FC0120818DE290E02F77FC0120832091B7
:1025B0006D0030916E008FE290E0FC018081F901A6
:1025C00009958DE290E0FC0120818DE290E02F7B67
:1025D000FC0120838AE0809368000000DF91CF91A6
:1025E000FF91EF91BF91AF919F918F917F916F91EB
:1025F0005F914F913F912F910F900FBE0F901F90C1
:1026000018950F931F93CF93DF93CDB7DEB729971C
:102610000FB6F894DEBF0FBECDBF9D838C8381E0E3
:10262000898380E490E0DC012C9180E490E02068D4
:10263000FC01208380E490E0DC012C9180E490E0B8
:102640002F7DFC01208380E490E0DC012C9180E46C
:1026500090E02F7EFC01208380E490E0DC012C914F
:1026600080E490E0277FFC01208380E490E0DC019F
:102670002C9180E490E02F7BFC012083109270006D
:102680008C819D81DC0114968C918823E1F480E497
:1026900090E0FC01208180E490E02D7FDC012C9310
:1026A00080E490E0FC01208180E490E02B7FDC015D
:1026B0002C938AE290E0FC0120818AE290E02B7F5B
:1026C000DC012C938EC08C819D81FC018481813042
:1026D000E1F480E490E0DC012C9180E490E0226061
:1026E000FC01208380E490E0DC012C9180E490E008
:1026F0002B7FFC0120838AE290E0DC012C918AE2AE
:1027000090E02B7FFC0120836CC08C819D81DC01DB
:1027100014968C918230E1F480E490E0FC012081F9
:1027200080E490E02D7FDC012C9380E490E0FC01BC
:10273000208180E490E02460DC012C938AE290E028
:10274000FC0120818AE290E02B7FDC012C9349C0C0
:102750008C819D81FC0184818330E1F480E490E0F0
:10276000DC012C9180E490E02260FC01208380E475
:1027700090E0DC012C9180E490E02460FC01208357
:102780008AE290E0DC012C918AE290E02B7FFC0150
:10279000208327C08C819D81DC0114968C91873029
:1027A000F9F480E490E0FC01208180E490E0226074
:1027B000DC012C9380E490E0FC01208180E490E037
:1027C0002460DC012C938AE290E0FC0120818AE203
:1027D00090E02460DC012C9381E08093700001C0C4
:1027E00019828C819D81FC01858180936F008C8191
:1027F0009D81DC0115968C91813051F48FE590E03C
:10280000FC0120818FE590E02068DC012C931AC048
:102810008C819D81FC018581882399F48AE290E076
:10282000DC012C918AE290E02F77FC0120838AE280
:1028300090E0DC012C918AE290E02F7DFC01208366
:1028400001C019828C819D81FC0180819181A281CE
:10285000B381880F991FAA1FBB1F880F991FAA1F3A
:10286000BB1F880F991FAA1FBB1F880F991FAA1F84
:10287000BB1F8C019D0180E092E1AAE7B0E08E834E
:102880009F83A887B9876E817F8188859985A901F3
:1028900098010E949916DA01C90101979B838A83E6
:1028A0008A819B818F3F910509F030F489E290E0A5
:1028B0002A81DC012C9316C080E490E0FC01208189
:1028C00080E490E02F77DC012C938A819B81292F73
:1028D000332780E490E0FC01208389E290E02A81A4
:1028E000DC012C93898129960FB6F894DEBF0FBEC8
:1028F000CDBFDF91CF911F910F910895CF93DF93BB
:1029000000D00F92CDB7DEB79B838A8381E08983A5
:102910008AE290E0FC0120818AE290E02860FC01DC
:10292000208300008BE290E0FC01808182958695F7
:102930008770882F90E081709927019799F780918F
:1029400070008130E1F480E490E0FC018081382F58
:102950003F7B8A819B81892F992786958295880F55
:10296000880F807C282F207480E490E0232BFC01CA
:1029700020838CE290E02A81FC01208305C08CE258
:1029800090E02A81FC01208300008BE290E0FC01B2
:1029900080818295869586958370882F90E08170DE
:1029A0009927019791F78BE290E0FC0120818BE25F
:1029B00090E02064FC01208389810F900F900F909C
:1029C000DF91CF910895CF93DF9300D00F92CDB7D1
:1029D000DEB79B838A8381E089838AE290E0FC01F1
:1029E00020818AE290E02061FC01208300008BE2DC
:1029F00090E0FC018081881F8827881F882F90E045
:102A000081709927019799F700008BE290E0FC0113
:102A10008081829586958770882F90E081709927B4
:102A2000019799F780917000813041F58A819B81EF
:102A3000FC01808191819C013D7F80E490E0FC015C
:102A40008081881F8827881F882F90E0982F8827EB
:102A5000990F88279270282B392B8A819B81FC0142
:102A6000318320838CE290E0FC018081282F30E0CC
:102A70008A819B81FC01318320830BC08CE290E032
:102A8000FC018081282F30E08A819B81FC01318309
:102A9000208389810F900F900F90DF91CF9108953F
:102AA000CF93DF9300D00F92CDB7DEB79B838A839D
:102AB00081E089838A819B81892BC9F08AE290E039
:102AC000FC0120818AE290E02061FC0120838AE2FF
:102AD00090E0FC0120818AE290E02068FC012083E4
:102AE0008A819B81909374008093730001C0198246
:102AF00089810F900F900F90DF91CF9108951F92D1
:102B00000F920FB60F9211242F933F934F935F9321
:102B10006F937F938F939F93AF93BF93EF93FF93A5
:102B2000CF93DF9300D0CDB7DEB780917300909143
:102B30007400892B09F44FC080917000813069F5D1
:102B400089819A819C013D7F80E490E0FC01808135
:102B5000881F8827881F882F90E0982F8827990F33
:102B600088279270822B932B9A83898300008BE2B3
:102B700090E0FC018081829586958770882F90E097
:102B800081709927019799F78CE290E0FC01808190
:102B9000882F90E09A83898316C000008BE290E032
:102BA000FC018081829586958770882F90E08170E6
:102BB0009927019799F78CE290E0FC018081882F9A
:102BC00090E09A8389832091730030917400898109
:102BD0009A81F901099500000F900F90DF91CF9134
:102BE000FF91EF91BF91AF919F918F917F916F91E5
:102BF0005F914F913F912F910F900FBE0F901F90BB
:102C00001895CF93DF9300D00F92CDB7DEB79B839B
:102C10008A8381E089838A819B81892BC9F08AE23A
:102C200090E0FC0120818AE290E02860FC01208392
:102C30008A819B8190937200809371008AE290E078
:102C4000FC0120818AE290E02062FC01208301C027
:102C5000198289810F900F900F90DF91CF91089585
:102C60001F920F920FB60F9211242F933F938F93C1
:102C70009F93EF93FF93CF93DF93CDB7DEB7809110
:102C8000710090917200FC01208131818CE290E012
:102C9000FC01208300008BE290E0FC0180818295A2
:102CA000869586958370882F90E08170992701978B
:102CB00091F78BE290E0FC0120818BE290E02064B0
:102CC000FC0120838AE290E0FC0120818AE290E00E
:102CD0002F7DFC0120830000DF91CF91FF91EF91C8
:102CE0009F918F913F912F910F900FBE0F901F904A
:102CF0001895CF93DF930F92CDB7DEB789838CE21F
:102D000090E02981FC01208300008BE290E0FC012F
:102D100080818295869586958370882F90E081705A
:102D20009927019791F7000000000F90DF91CF9154
:102D30000895A1E21A2EAA1BBB1BFD010DC0AA1FFC
:102D4000BB1FEE1FFF1FA217B307E407F50720F014
:102D5000A21BB30BE40BF50B661F771F881F991F8F
:102D60001A9469F760957095809590959B01AC01D8
:102D7000BD01CF010895A29FB001B39FC001A39FE1
:102D8000700D811D1124911DB29F700D811D1124A4
:102D9000911D08950E94FE1608F481E008950E9496
:102DA0002A1788F09F5798F0B92F9927B751B0F09C
:102DB000E1F0660F771F881F991F1AF0BA95C9F7BF
:102DC00014C0B13091F00E944417B1E008950C9402
:102DD0004417672F782F8827B85F39F0B93FCCF3B5
:102DE000869577956795B395D9F73EF4909580953C
:102DF000709561957F4F8F4F9F4F0895990F0008F1
:102E0000550FAA0BE0E8FEEF16161706E807F907BC
:102E1000C0F012161306E407F50798F0621B730B57
:102E2000840B950B39F40A2661F0232B242B252BD8
:102E300021F408950A2609F4A140A6958FEF811D7B
:102E4000811D089557FD9058440F551F59F05F3F5D
:102E500071F04795880F97FB991F61F09F3F79F0BC
:102E600087950895121613061406551FF2CF46953E
:102E7000F1DF08C0161617061806991FF1CF8695C0
:102E80007105610508940895E894BB2766277727A4
:102E9000CB0197F908950E94FE1608F48FEF08956C
:102EA0000E9463170C94D4170E94C61738F00E9432
:102EB000CD1720F0952311F00C94BD170C94C31777
:102EC00011240C9445170E94221770F3959FC1F3AB
:102ED000950F50E0551F629FF001729FBB27F00DC8
:102EE000B11D639FAA27F00DB11DAA1F649F66271D
:102EF000B00DA11D661F829F2227B00DA11D621F6C
:102F0000739FB00DA11D621F839FA00D611D221F25
:102F1000749F3327A00D611D231F849F600D211D09
:102F2000822F762F6A2F11249F5750409AF0F1F08C
:102F300088234AF0EE0FFF1FBB1F661F771F881FF5
:102F400091505040A9F79E3F510580F00C94BD1759
:102F50000C9445175F3FE4F3983ED4F3869577953C
:102F60006795B795F795E7959F5FC1F7FE2B880F9B
:102F7000911D9695879597F9089597F99F6780E831
:102F800070E060E008959FEF80EC089500240A94BB
:102F90001616170618060906089500240A94121634
:102FA0001306140605060895092E0394000C11F467
:102FB000882352F0BB0F40F4BF2B11F460FF04C014
:0E2FC0006F5F7F4F8F4F9F4F0895F894FFCFA4
:0A2FCE0000001F19191901010A0083
:00000001FF
