:100000000C942A000C9447000C9447000C94470071
:100010000C9447000C9447000C9447000C94470044
:100020000C9447000C9447000C9447000C94470034
:100030000C9496190C94CC1C0C947D1D0C944700C8
:100040000C9447000C9447000C9447000C94470014
:100050000C94470011241FBECFE5D8E0DEBFCDBF12
:1000600011E0A0E6B0E0E8E6FEE302C005900D92E4
:10007000A834B107D9F721E0A8E4B1E001C01D928E
:10008000A235B207E1F70E94DC0E0C94321F0C94EB
:100090000000CF93DF9300D000D0CDB7DEB78A83C6
:1000A0006B834C8381E089838B81883008F0A6C004
:1000B0008A81882F90E08330910509F47AC08430DA
:1000C00091050CF099C08230910509F44FC083303E
:1000D00091050CF091C0009719F0019721F18CC0A7
:1000E0008AE390E0FC018081482F8B81282F30E04B
:1000F00081E090E002C0880F991F2A95E2F7809571
:1001000048238C81882F90E02B81222F30E002C081
:10011000880F991F2A95E2F7242F282B8AE390E075
:10012000FC0120836CC087E390E0FC018081482FB4
:100130008B81282F30E081E090E002C0880F991F6A
:100140002A95E2F7809548238C81882F90E02B81B7
:10015000222F30E002C0880F991F2A95E2F7242F42
:10016000282B87E390E0FC01208349C084E390E0E2
:10017000FC018081482F8B81282F30E081E090E0C6
:1001800002C0880F991F2A95E2F7809548238C8139
:10019000882F90E02B81222F30E002C0880F991F1A
:1001A0002A95E2F7242F282B84E390E0FC0120839A
:1001B00026C081E390E0FC018081482F8B81282FAD
:1001C00030E081E090E002C0880F991F2A95E2F7A5
:1001D000809548238C81882F90E02B81222F30E05E
:1001E00002C0880F991F2A95E2F7242F282B81E35C
:1001F00090E0FC01208303C0198201C0198289812B
:100200000F900F900F900F90DF91CF910895CF93A3
:10021000DF9300D00F92CDB7DEB78A836B8381E086
:1002200089838A81882F90E08330910501F18430A1
:1002300091051CF582309105A1F083309105ECF415
:10024000009719F0019739F018C08AE390E02B81EC
:10025000FC01208314C08AE390E02B81FC01208301
:100260000EC08AE390E02B81FC01208308C08AE362
:1002700090E02B81FC01208302C01982000089815B
:100280000F900F900F90DF91CF910895CF93DF9350
:1002900000D000D0CDB7DEB78A836B834C8381E07A
:1002A00089838B81883008F0A6C08A81882F90E0EE
:1002B0008330910509F47AC0843091050CF099C01F
:1002C0008230910509F44FC0833091050CF091C044
:1002D000009719F0019721F18CC08BE390E0FC01AD
:1002E0008081482F8B81282F30E081E090E002C090
:1002F000880F991F2A95E2F7809548238C81882FD3
:1003000090E02B81222F30E002C0880F991F2A95A0
:10031000E2F7242F282B8BE390E0FC0120836CC0B4
:1003200088E390E0FC018081482F8B81282F30E00A
:1003300081E090E002C0880F991F2A95E2F780952E
:1003400048238C81882F90E02B81222F30E002C03F
:10035000880F991F2A95E2F7242F282B88E390E035
:10036000FC01208349C085E390E0FC018081482F97
:100370008B81282F30E081E090E002C0880F991F28
:100380002A95E2F7809548238C81882F90E02B8175
:10039000222F30E002C0880F991F2A95E2F7242F00
:1003A000282B85E390E0FC01208326C082E390E0C7
:1003B000FC018081482F8B81282F30E081E090E084
:1003C00002C0880F991F2A95E2F7809548238C81F7
:1003D000882F90E02B81222F30E002C0880F991FD8
:1003E0002A95E2F7242F282B82E390E0FC0120835A
:1003F00003C0198201C0198289810F900F900F905C
:100400000F90DF91CF910895CF93DF9300D00F929B
:10041000CDB7DEB78A836B8381E089838A81882F99
:1004200090E08330910501F1843091051CF5823014
:100430009105A1F083309105ECF4009719F0019734
:1004400039F018C08BE390E02B81FC01208314C0AD
:1004500088E390E02B81FC0120830EC085E390E0CF
:100460002B81FC01208308C082E390E02B81FC01FA
:10047000208302C01982000089810F900F900F9095
:10048000DF91CF910895CF93DF9300D000D00F92EA
:10049000CDB7DEB78A836B835D834C8381E089832C
:1004A0008B81883008F06DC08A81882F90E083307E
:1004B000910509F44FC0843091050CF060C0823082
:1004C000910599F1833091050CF059C0009719F00E
:1004D0000197B1F054C089E390E0FC018081882F3E
:1004E00090E02B81222F30E002C0959587952A95C8
:1004F000E2F7282F21708C819D81FC01208342C06E
:1005000086E390E0FC018081882F90E02B81222FF0
:1005100030E002C0959587952A95E2F7282F217043
:100520008C819D81FC0120832DC083E390E0FC0140
:100530008081882F90E02B81222F30E002C095959A
:1005400087952A95E2F7282F21708C819D81FC01E7
:10055000208318C080E390E0FC018081882F90E028
:100560002B81222F30E002C0959587952A95E2F7DE
:10057000282F21708C819D81FC01208303C019826A
:1005800001C0198289810F900F900F900F900F90EA
:10059000DF91CF910895CF93DF9300D000D0CDB7F6
:1005A000DEB78A837C836B8381E089838A81882F8D
:1005B00090E08330910549F1843091057CF58230DB
:1005C0009105D1F0833091054CF5009719F0019712
:1005D00051F024C089E390E0FC0120818B819C8153
:1005E000FC0120831DC086E390E0FC0120818B810B
:1005F0009C81FC01208314C083E390E0FC012081F6
:100600008B819C81FC0120830BC080E390E0FC0186
:1006100020818B819C81FC01208302C01982000013
:1006200089810F900F900F900F90DF91CF910895D7
:10063000CF93DF9300D000D0CDB7DEB78A836B8332
:100640004C8381E089838B81883008F0A6C08A8141
:10065000882F90E08330910509F47AC084309105A9
:100660000CF099C08230910509F44FC08330910598
:100670000CF091C0009719F0019721F18CC08BE329
:1006800090E0FC018081482F8B81282F30E081E0B1
:1006900090E002C0880F991F2A95E2F780954823C1
:1006A0008C81882F90E02B81222F30E002C0880FB0
:1006B000991F2A95E2F7242F282B8BE390E0FC0169
:1006C00020836CC088E390E0FC018081482F8B81FF
:1006D000282F30E081E090E002C0880F991F2A9512
:1006E000E2F7809548238C81882F90E02B81222F80
:1006F00030E002C0880F991F2A95E2F7242F282B9B
:1007000088E390E0FC01208349C085E390E0FC0190
:100710008081482F8B81282F30E081E090E002C05B
:10072000880F991F2A95E2F7809548238C81882F9E
:1007300090E02B81222F30E002C0880F991F2A956C
:10074000E2F7242F282B85E390E0FC01208326C0CC
:1007500082E390E0FC018081482F8B81282F30E0DC
:1007600081E090E002C0880F991F2A95E2F78095FA
:1007700048238C81882F90E02B81222F30E002C00B
:10078000880F991F2A95E2F7242F282B82E390E007
:10079000FC01208303C0198201C0198289810F9056
:1007A0000F900F900F90DF91CF910895CF93DF932B
:1007B00000D00F92CDB7DEB78A836B8381E0898347
:1007C0008A81882F90E08330910501F18430910572
:1007D0001CF582309105A1F083309105ECF400976F
:1007E00019F0019739F018C08BE390E02B81FC01E0
:1007F000208314C088E390E02B81FC0120830EC08D
:1008000085E390E02B81FC01208308C082E390E027
:100810002B81FC01208302C01982000089810F9086
:100820000F900F90DF91CF910895CF93DF930F92A8
:10083000CDB7DEB7898389810E94AA0700000F9097
:10084000DF91CF910895CF93DF9300D00F92CDB772
:10085000DEB79B838A8319820EC08981882F90E03E
:100860002A813B81820F931FFC0180810E94AA078D
:1008700089818F5F89838981882F90E02A813B81DC
:10088000820F931FFC018081882339F7000000004C
:100890000F900F900F90DF91CF910895CF93DF933A
:1008A00000D0CDB7DEB789836A8389818E5F982FA8
:1008B0009295990F990F907C8A81890F0E946A0501
:1008C00000000F900F90DF91CF910895CF93DF93A9
:1008D000CDB7DEB781E00E946A050000DF91CF91BD
:1008E0000895CF93DF9300D000D0CDB7DEB78A83D1
:1008F0006B834C8319826B818A810E944E048B81A9
:10090000898306C080E20E94AA0789818F5F89835C
:1009100099818C818917B0F7000000000F900F902B
:100920000F900F90DF91CF910895CF93DF930F92A7
:10093000CDB7DEB789838981813021F48FE00E94B1
:100940006A0506C08981882319F48BE00E946A0534
:1009500000000F90DF91CF910895CF93DF93CDB733
:10096000DEB763970FB6F894DEBF0FBECDBF688BBE
:10097000798B8A8B9B8B81E089831A8288899989FC
:100980009C838B8312C089818F5F89838B819C813B
:100990009C01ADECBCEC0E94081E9695879596953F
:1009A0008795969587959C838B838B819C810A97ED
:1009B00050F7888999899C838B8389818D8338C07E
:1009C0004B815C819A01ADECBCEC0E94081E9C013D
:1009D000369527953695279536952795C901880F21
:1009E000991F880F991F820F931F880F991F9A01D3
:1009F000281B390B8981882F90E00197422F9E0197
:100A00002A5F3F4F820F931FFC0140838B819C81A3
:100A10009C01ADECBCEC0E94081E969587959695BE
:100A20008795969587959C838B838981815089834F
:100A30008981882329F61A8210C08A81882F90E044
:100A40009E012A5F3F4F820F931FFC018081805DD2
:100A50000E94AA078A818F5F8A839A818D81981765
:100A600060F30000000063960FB6F894DEBF0FBE7F
:100A7000CDBFDF91CF910895CF93DF9300D000D009
:100A80000F92CDB7DEB79B838A836C834D8380E45E
:100A90000E946A0519820EC08981882F90E02A8100
:100AA0003B81820F931FFC0180810E94AA078981EC
:100AB0008F5F89838981883078F36D818C810E9472
:100AC0004E0400000F900F900F900F900F90DF9149
:100AD000CF910895CF93DF93CDB7DEB7C756D10935
:100AE0000FB6F894DEBF0FBECDBF8BA740E063E02A
:100AF00080E00E94460140E061E080E00E94460103
:100B000040E062E080E00E9446018BE390E0DC017F
:100B10008C91982F9F708BA5807F292F282B8BE39A
:100B200090E0FC01208341E063E080E00E94460108
:100B300080E090E0A0E0B0E48D8F9E8FAF8FB8A3EF
:100B400020E030E04AEF54E46D8D7E8D8F8D98A1CA
:100B50000E949D1E68AF79AF8AAF9BAF88AD99ADFB
:100B6000AAADBBAD89A39AA3ABA3BCA320E030E0A0
:100B700040E85FE369A17AA18BA19CA10E94171EA6
:100B800088232CF481E090E09EA38DA35DC020E03B
:100B90003FEF4FE757E469A17AA18BA19CA10E9486
:100BA000981E18160CF03EC020E030E040E251E400
:100BB0006D8D7E8D8F8D98A10E949D1E6CAF7DAF37
:100BC0008EAF9FAF8CAD9DADAEADBFAD8CAB9DABD1
:100BD000AEABBFAB6CA97DA98EA99FA90E941C1EBC
:100BE00024966CAF7DAF8EAF9FAF24972296AEADAB
:100BF000BFAD2297BEA3ADA310C088EC90E098A72C
:100C00008FA38FA198A50197F1F798A78FA3000054
:100C10008DA19EA101979EA38DA38DA19EA1892B3D
:100C200061F71DC069A17AA18BA19CA10E941C1E25
:100C300028966CAF7DAF8EAF9FAF28972696EEAD0E
:100C4000FFAD2697FEA3EDA38DA19EA19AA789A72C
:100C500089A59AA50197F1F79AA789A7000040E016
:100C600063E080E00E94460180E090E0A0E0B0E414
:100C70008F87988BA98BBA8B20E030E04AEF54E441
:100C80006F85788989899A890E949D1E2C966CAF00
:100C90007DAF8EAF9FAF2C972C968CAD9DADAEAD3A
:100CA000BFAD2C978B8B9C8BAD8BBE8B20E030E047
:100CB00040E85FE36B897C898D899E890E94171EBD
:100CC00088232CF481E090E0988F8F8B61C020E026
:100CD0003FEF4FE757E46B897C898D899E890E949D
:100CE000981E18160CF042C020E030E040E251E4BB
:100CF0006F85788989899A890E949D1E60966CAF5C
:100D00007DAF8EAF9FAF609760968CAD9DADAEAD61
:100D1000BFAD609788AB99ABAAABBBAB68A979A90B
:100D20008AA99BA90E941C1E64966CAF7DAF8EAFF2
:100D30009FAF64976296AEADBFAD6297B88FAF8B31
:100D400010C088EC90E09A8F898F898D9A8D0197D9
:100D5000F1F79A8F898F00008F89988D0197988F6E
:100D60008F8B8F89988D892B61F71DC06B897C894A
:100D70008D899E890E941C1E68966CAF7DAF8EAFD8
:100D80009FAF68976696EEADFFAD6697F88FEF8BD5
:100D90008F89988D9C8F8B8F8B8D9C8D0197F1F710
:100DA0009C8F8B8F000040E063E080E00E94460152
:100DB00040E061E080E00E94460140E062E080E0C7
:100DC0000E9446018BE390E0DC018C91282F2F706C
:100DD0008BA5882F90E082959295907F9827807FB1
:100DE0009827282B8BE390E0FC01208341E063E00F
:100DF00080E00E94460180E090E0A0E0B0E48983BA
:100E00009A83AB83BC8320E030E04AEF54E46981ED
:100E10007A818B819C810E949D1E6C966CAF7DAF08
:100E20008EAF9FAF6C976C968CAD9DADAEADBFADE8
:100E30006C978D839E83AF83B88720E030E040E8D5
:100E40005FE36D817E818F8198850E94171E8823C4
:100E50002CF481E090E09A87898761C020E03FEF21
:100E60004FE757E46D817E818F8198850E94981E9F
:100E700018160CF042C020E030E040E251E46981F5
:100E80007A818B819C810E949D1EA0966CAF7DAF64
:100E90008EAF9FAFA097A0968CAD9DADAEADBFAD10
:100EA000A0978CA79DA7AEA7BFA76CA57DA58EA573
:100EB0009FA50E941C1EA4966CAF7DAF8EAF9FAF06
:100EC000A497A296AEADBFADA297BA87A98710C06E
:100ED00088EC90E09C878B878B859C850197F1F748
:100EE0009C878B87000089859A8501979A878987D7
:100EF00089859A85892B61F71DC06D817E818F81DF
:100F000098850E941C1EA8966CAF7DAF8EAF9FAFD8
:100F1000A897A696EEADFFADA697FA87E9878985D3
:100F20009A859E878D878D859E850197F1F79E878F
:100F30008D87000040E063E080E00E9446010000F1
:100F4000C959DF4F0FB6F894DEBF0FBECDBFDF919A
:100F5000CF910895CF93DF93CDB7DEB7C756D109B0
:100F60000FB6F894DEBF0FBECDBF8BA740E063E0A5
:100F700080E00E94460141E061E080E00E9446017D
:100F800040E062E080E00E9446018BE390E0DC01FB
:100F90008C91982F9F708BA5807F292F282B8BE316
:100FA00090E0FC01208341E063E080E00E94460184
:100FB00080E090E0A0E0B0E48D8F9E8FAF8FB8A36B
:100FC00020E030E04AEF54E46D8D7E8D8F8D98A146
:100FD0000E949D1E68AF79AF8AAF9BAF88AD99AD77
:100FE000AAADBBAD89A39AA3ABA3BCA320E030E01C
:100FF00040E85FE369A17AA18BA19CA10E94171E22
:1010000088232CF481E090E09EA38DA35DC020E0B6
:101010003FEF4FE757E469A17AA18BA19CA10E9401
:10102000981E18160CF03EC020E030E040E251E47B
:101030006D8D7E8D8F8D98A10E949D1E6CAF7DAFB2
:101040008EAF9FAF8CAD9DADAEADBFAD8CAB9DAB4C
:10105000AEABBFAB6CA97DA98EA99FA90E941C1E37
:1010600024966CAF7DAF8EAF9FAF24972296AEAD26
:10107000BFAD2297BEA3ADA310C088EC90E098A7A7
:101080008FA38FA198A50197F1F798A78FA30000D0
:101090008DA19EA101979EA38DA38DA19EA1892BB9
:1010A00061F71DC069A17AA18BA19CA10E941C1EA1
:1010B00028966CAF7DAF8EAF9FAF28972696EEAD8A
:1010C000FFAD2697FEA3EDA38DA19EA19AA789A7A8
:1010D00089A59AA50197F1F79AA789A7000040E092
:1010E00063E080E00E94460180E090E0A0E0B0E490
:1010F0008F87988BA98BBA8B20E030E04AEF54E4BD
:101100006F85788989899A890E949D1E2C966CAF7B
:101110007DAF8EAF9FAF2C972C968CAD9DADAEADB5
:10112000BFAD2C978B8B9C8BAD8BBE8B20E030E0C2
:1011300040E85FE36B897C898D899E890E94171E38
:1011400088232CF481E090E0988F8F8B61C020E0A1
:101150003FEF4FE757E46B897C898D899E890E9418
:10116000981E18160CF042C020E030E040E251E436
:101170006F85788989899A890E949D1E60966CAFD7
:101180007DAF8EAF9FAF609760968CAD9DADAEADDD
:10119000BFAD609788AB99ABAAABBBAB68A979A987
:1011A0008AA99BA90E941C1E64966CAF7DAF8EAF6E
:1011B0009FAF64976296AEADBFAD6297B88FAF8BAD
:1011C00010C088EC90E09A8F898F898D9A8D019755
:1011D000F1F79A8F898F00008F89988D0197988FEA
:1011E0008F8B8F89988D892B61F71DC06B897C89C6
:1011F0008D899E890E941C1E68966CAF7DAF8EAF54
:101200009FAF68976696EEADFFAD6697F88FEF8B50
:101210008F89988D9C8F8B8F8B8D9C8D0197F1F78B
:101220009C8F8B8F000040E063E080E00E944601CD
:1012300041E061E080E00E94460140E062E080E041
:101240000E9446018BE390E0DC018C91282F2F70E7
:101250008BA5882F90E082959295907F9827807F2C
:101260009827282B8BE390E0FC01208341E063E08A
:1012700080E00E94460180E090E0A0E0B0E4898335
:101280009A83AB83BC8320E030E04AEF54E4698169
:101290007A818B819C810E949D1E6C966CAF7DAF84
:1012A0008EAF9FAF6C976C968CAD9DADAEADBFAD64
:1012B0006C978D839E83AF83B88720E030E040E851
:1012C0005FE36D817E818F8198850E94171E882340
:1012D0002CF481E090E09A87898761C020E03FEF9D
:1012E0004FE757E46D817E818F8198850E94981E1B
:1012F00018160CF042C020E030E040E251E4698171
:101300007A818B819C810E949D1EA0966CAF7DAFDF
:101310008EAF9FAFA097A0968CAD9DADAEADBFAD8B
:10132000A0978CA79DA7AEA7BFA76CA57DA58EA5EE
:101330009FA50E941C1EA4966CAF7DAF8EAF9FAF81
:10134000A497A296AEADBFADA297BA87A98710C0E9
:1013500088EC90E09C878B878B859C850197F1F7C3
:101360009C878B87000089859A8501979A87898752
:1013700089859A85892B61F71DC06D817E818F815A
:1013800098850E941C1EA8966CAF7DAF8EAF9FAF54
:10139000A897A696EEADFFADA697FA87E98789854F
:1013A0009A859E878D878D859E850197F1F79E870B
:1013B0008D87000040E063E080E00E94460100006D
:1013C000C959DF4F0FB6F894DEBF0FBECDBFDF9116
:1013D000CF9108950F931F93CF93DF93CDB7DEB7CF
:1013E000CC5CD1090FB6F894DEBF0FBECDBF6FEF56
:1013F00080E00E94070141E061E080E00E94490036
:1014000041E062E080E00E94490041E063E080E06A
:101410000E9449009E01295B3F4F80E090E0A0EFD1
:10142000B1E4F90180839183A283B3838E01055BCC
:101430001F4FCE01895B9F4F20E030E04AEF54E41C
:10144000DC016D917D918D919C910E949D1EE19694
:101450006CAF7DAF8EAF9FAFE197E1962CAD3DAD08
:101460004EAD5FADE197D8012D933D934D935C93C5
:101470001397CE01855B9F4F20E030E040E85FE3AB
:10148000FC0160817181828193810E94171E8823F3
:101490004CF4CE01815B9F4F21E030E0DC012D93C5
:1014A0003C9392C0CE01855B9F4F20E03FEF4FE71A
:1014B00057E4FC0160817181828193810E94981EB2
:1014C00018160CF067C0CE01895B9F4F20E030E01A
:1014D00040E251E4DC016D917D918D919C910E94DF
:1014E0009D1EE5966CAF7DAF8EAF9FAFE597E596FD
:1014F0002CAD3DAD4EAD5FADE597AD962CAF3DAF9C
:101500004EAF5FAFAD978E01015B1F4FAD966CADD7
:101510007DAD8EAD9FADAD970E941C1EE9966CAF60
:101520007DAF8EAF9FAFE997E796EEADFFADE79742
:10153000D801ED93FC9325C0CE018F5A9F4F28EC24
:1015400030E0DC012D933C93CE018F5A9F4FFC017C
:10155000808191810197F1F79E012F5A3F4FD90168
:101560008D939C930000CE01815B9F4F9E01215B78
:101570003F4FF9012081318121503109DC012D9348
:101580003C93CE01815B9F4FFC0180819181892B2F
:1015900099F635C08E01015B1F4FCE01855B9F4FD1
:1015A000DC016D917D918D919C910E941C1EED96A8
:1015B0006CAF7DAF8EAF9FAFED97EB962EAD3FAD8D
:1015C000EB97F80131832083CE018D5A9F4F9E0106
:1015D000215B3F4FD9012D913C91FC013183208348
:1015E000CE018D5A9F4FDC018D919C910197F1F7AF
:1015F0009E012D5A3F4FF90191838083000083E3C0
:101600000E946A0580E090E0A0E0B0E489AF9AAF64
:10161000ABAFBCAF20E030E04AEF54E469AD7AAD47
:101620008BAD9CAD0E949D1EC358DF4F68837983AC
:101630008A839B83CD57D040CE01CD96C358DF4FD0
:10164000288139814A815B81CD57D040DC012D93BF
:101650003D934D935C93139720E030E040E85FE3C7
:10166000CE01CD96FC0160817181828193810E94BF
:10167000171E88234CF4CE018F5B9F4F21E030E092
:10168000DC012D933C9398C020E03FEF4FE757E4F7
:10169000CE01CD96FC0160817181828193810E948F
:1016A000981E18160CF06BC020E030E040E251E4C8
:1016B00069AD7AAD8BAD9CAD0E949D1ECF57DF4FBB
:1016C000688379838A839B83C158D040CF57DF4F8B
:1016D000288139814A815B81C158D040A9962CAFBD
:1016E0003DAF4EAF5FAFA9978E010F5B1F4FA9961D
:1016F0006CAD7DAD8EAD9FADA9970E941C1ECB57E2
:10170000DF4F688379838A839B83C558D040CB574A
:10171000DF4FE881F981C558D040D801ED93FC93A3
:1017200025C0CE018D5B9F4F28EC30E0DC012D936E
:101730003C93CE018D5B9F4FFC018081918101978D
:10174000F1F79E012D5B3F4FD9018D939C930000D3
:10175000CE018F5B9F4F9E012F5B3F4FF901208190
:10176000318121503109DC012D933C93CE018F5BF7
:101770009F4FFC0180819181892B99F638C08E01A1
:101780000F5B1F4FCE01CD96DC016D917D918D9148
:101790009C910E941C1EC757DF4F688379838A8300
:1017A0009B83C958D040C757DF4F28813981C9581A
:1017B000D040F80131832083CE018B5B9F4F9E0187
:1017C0002F5B3F4FD9012D913C91FC013183208348
:1017D000CE018B5B9F4FDC018D919C910197F1F7BE
:1017E0009E012B5B3F4FF90191838083000082E3D0
:1017F0000E946A0580E090E0A0E0B0E48BA79CA77F
:10180000ADA7BEA720E030E04AEF54E46BA57CA56D
:101810008DA59EA50E949D1EC357DF4F68837983C7
:101820008A839B83CD58D040C357DF4F28813981AD
:101830004A815B81CD58D0402FA738AB49AB5AAB1A
:1018400020E030E040E85FE36FA578A989A99AA974
:101850000E94171E88232CF481E090E09CAB8BAB98
:1018600071C020E03FEF4FE757E46FA578A989A941
:101870009AA90E94981E18160CF04EC020E030E085
:1018800040E251E46BA57CA58DA59EA50E949D1EFE
:10189000CF56DF4F688379838A839B83C159D040B9
:1018A000CF56DF4F88819981AA81BB81C159D04031
:1018B000A5968CAF9DAFAEAFBFAFA597A5966CAD0B
:1018C0007DAD8EAD9FADA5970E941C1ECB56DF4F00
:1018D000688379838A839B83C559D040CB56DF4F79
:1018E000A881B981C559D040BCABABAB10C088EC66
:1018F00090E09EAB8DAB8DA99EA90197F1F79EABB1
:101900008DAB00008BA99CA901979CAB8BAB8BA9DD
:101910009CA9892B61F721C06FA578A989A99AA9EB
:101920000E941C1EC756DF4F688379838A839B837E
:10193000C959D040C756DF4FE881F981C959D04015
:10194000FCABEBAB8BA99CA998AF8FAB8FA998ADE3
:101950000197F1F798AF8FAB00008CE20E946A0507
:1019600080E090E0A0E0B0E48D8F9E8FAF8FB8A3B1
:1019700020E030E04AEF54E46D8D7E8D8F8D98A18C
:101980000E949D1EC356DF4F688379838A839B83A1
:10199000CD59D040C356DF4F288139814A815B81C0
:1019A000CD59D04029A33AA34BA35CA320E030E05B
:1019B00040E85FE369A17AA18BA19CA10E94171E58
:1019C00088232CF481E090E09EA38DA371C020E0D9
:1019D0003FEF4FE757E469A17AA18BA19CA10E9438
:1019E000981E18160CF04EC020E030E040E251E4A2
:1019F0006D8D7E8D8F8D98A10E949D1ECF55DF4FDE
:101A0000688379838A839B83C15AD040CF55DF4F47
:101A100088819981AA81BB81C15AD040A1968CAF9F
:101A20009DAFAEAFBFAFA197A1966CAD7DAD8EADB2
:101A30009FADA1970E941C1ECB55DF4F6883798311
:101A40008A839B83C55AD040CB55DF4FA881B9818B
:101A5000C55AD040BEA3ADA310C088EC90E098A7B3
:101A60008FA38FA198A50197F1F798A78FA30000E6
:101A70008DA19EA101979EA38DA38DA19EA1892BCF
:101A800061F721C069A17AA18BA19CA10E941C1EB3
:101A9000C755DF4F688379838A839B83C95AD040B7
:101AA000C755DF4FE881F981C95AD040FEA3EDA3A5
:101AB0008DA19EA19AA789A789A59AA50197F1F75B
:101AC0009AA789A700008FE00E946A0580E090E055
:101AD000A0E0B0E48F87988BA98BBA8B20E030E030
:101AE0004AEF54E46F85788989899A890E949D1EFE
:101AF000C355DF4F688379838A839B83CD5AD04057
:101B0000C355DF4F288139814A815B81CD5AD0404E
:101B10002B8B3C8B4D8B5E8B20E030E040E85FE30D
:101B20006B897C898D899E890E94171E88232CF4DD
:101B300081E090E0988F8F8B71C020E03FEF4FE7FE
:101B400057E46B897C898D899E890E94981E18169E
:101B50000CF04EC020E030E040E251E46F8578891F
:101B600089899A890E949D1ECF54DF4F68837983AB
:101B70008A839B83C15BD040CF54DF4F888199819A
:101B8000AA81BB81C15BD0406D968CAF9DAFAEAFDB
:101B9000BFAF6D976D966CAD7DAD8EAD9FAD6D9702
:101BA0000E941C1ECB54DF4F688379838A839B83FA
:101BB000C55BD040CB54DF4FA881B981C55BD04015
:101BC000B88FAF8B10C088EC90E09A8F898F898D89
:101BD0009A8D0197F1F79A8F898F00008F89988DE0
:101BE0000197988F8F8B8F89988D892B61F721C0F2
:101BF0006B897C898D899E890E941C1EC754DF4F8A
:101C0000688379838A839B83C95BD040C754DF4F45
:101C1000E881F981C95BD040F88FEF8B8F89988D6F
:101C20009C8F8B8F8B8D9C8D0197F1F79C8F8B8F69
:101C3000000081E00E946A0580E090E0A0E0B0E44E
:101C400089839A83AB83BC8320E030E04AEF54E47D
:101C500069817A818B819C810E949D1EC354DF4FD4
:101C6000688379838A839B83CD5BD040C354DF4FE5
:101C7000288139814A815B81CD5BD0402D833E83B1
:101C80004F83588720E030E040E85FE36D817E813C
:101C90008F8198850E94171E88232CF481E090E0A4
:101CA0009A87898771C020E03FEF4FE757E46D8145
:101CB0007E818F8198850E94981E18160CF04EC068
:101CC00020E030E040E251E469817A818B819C819F
:101CD0000E949D1ECF53DF4F688379838A839B8345
:101CE000C15CD040CF53DF4F88819981AA81BB81ED
:101CF000C15CD04069968CAF9DAFAEAFBFAF699766
:101D000069966CAD7DAD8EAD9FAD69970E941C1E2E
:101D1000CB53DF4F688379838A839B83C55CD04034
:101D2000CB53DF4FA881B981C55CD040BA87A98762
:101D300010C088EC90E09C878B878B859C850197F1
:101D4000F1F79C878B87000089859A8501979A8790
:101D5000898789859A85892B61F721C06D817E816C
:101D60008F8198850E941C1EC753DF4F688379833B
:101D70008A839B83C95CD040C753DF4FE881F981D8
:101D8000C95CD040FA87E98789859A859E878D87C7
:101D90008D859E850197F1F79E878D870000000055
:101DA000C453DF4F0FB6F894DEBF0FBECDBFDF9137
:101DB000CF911F910F9108950F931F93CF93DF93AE
:101DC000CDB7DEB7C75FD1090FB6F894DEBF0FBE3F
:101DD000CDBF0E94EA09CE018D599F4F26E0E2ED6A
:101DE000F0E0DC0101900D922A95E1F7CE018759D0
:101DF0009F4F21E0DC012C93CE0187599F4F22E0B9
:101E0000FC012183CE0187599F4F21E0DC0112960E
:101E10002C93CE018D599F4F0E944E1ACE018759A7
:101E20009F4FFC0181810E94931660E080E00E9438
:101E30004E0489E690E00E9423049E012B5A3F4FF6
:101E400080E090E0A6E9B3E4F90180839183A28366
:101E5000B3838E01075A1F4FCE018B5A9F4F20E04C
:101E600030E04AE755E4DC016D917D918D919C91C4
:101E70000E949D1EC857DF4F688379838A839B83A6
:101E8000C858D040C857DF4F288139814A815B81CB
:101E9000C858D040D8012D933D934D935C93139730
:101EA000CE01875A9F4F20E030E040E85FE3FC011D
:101EB00060817181828193810E94171E88234CF476
:101EC000CE01835A9F4F21E030E0DC012D933C93FB
:101ED000A2C0CE01875A9F4F20E03FEF4FE757E463
:101EE000FC0160817181828193810E94981E181685
:101EF0000CF073C0CE018B5A9F4F20E030E040E2DF
:101F000051E4DC016D917D918D919C910E949D1E0B
:101F1000C457DF4F688379838A839B83CC58D04032
:101F2000C457DF4F288139814A815B81CC58D0402A
:101F3000CC57DF4F288339834A835B83C458D04012
:101F40008E01035A1F4FCC57DF4F688179818A81F8
:101F50009B81C458D0400E941C1EC057DF4F68832D
:101F600079838A839B83C059D040C057DF4FE88173
:101F7000F981C059D040D801ED93FC9325C0CE0122
:101F8000815A9F4F20E931E0DC012D933C93CE0133
:101F9000815A9F4FFC01808191810197F1F79E0149
:101FA000215A3F4FD9018D939C930000CE01835A53
:101FB0009F4F9E01235A3F4FF901208131812150CB
:101FC0003109DC012D933C93CE01835A9F4FFC01D4
:101FD00080819181892B99F639C08E01035A1F4F58
:101FE000CE01875A9F4FDC016D917D918D919C911F
:101FF0000E941C1ECC56DF4F688379838A839B83A3
:10200000C459D040CC56DF4F28813981C459D040C3
:10201000F80131832083CE018F599F4F9E01235AAF
:102020003F4FD9012D913C91FC0131832083CE019A
:102030008F599F4FDC018D919C910197F1F79E0183
:102040002F593F4FF9019183808300000E9466045D
:1020500060E080E00E944E0485E790E00E94230447
:102060009E01295B3F4F80E090E0A6E9B3E4F901CF
:1020700080839183A283B3838E01055B1F4FCE01C2
:10208000895B9F4F20E030E04AE755E4DC016D9129
:102090007D918D919C910E949D1EC856DF4F688353
:1020A00079838A839B83C859D040C856DF4F2881E3
:1020B00039814A815B81C859D040D8012D933D9325
:1020C0004D935C931397CE01855B9F4F20E030E0EA
:1020D00040E85FE3FC0160817181828193810E940D
:1020E000171E88234CF4CE01815B9F4F21E030E026
:1020F000DC012D933C93A2C0CE01855B9F4F20E075
:102100003FEF4FE757E4FC01608171818281938149
:102110000E94981E18160CF073C0CE01895B9F4F69
:1021200020E030E040E251E4DC016D917D918D9141
:102130009C910E949D1EC456DF4F688379838A83D9
:102140009B83CC59D040C456DF4F288139814A81C6
:102150005B81CC59D040C058DF4F288339834A83F4
:102160005B83C058D0408E01015B1F4FC058DF4FCA
:10217000688179818A819B81C058D0400E941C1E51
:10218000C056DF4F688379838A839B83C05AD040CF
:10219000C056DF4FE881F981C05AD040D801ED9395
:1021A000FC9325C0CE018F5A9F4F20E931E0DC011E
:1021B0002D933C93CE018F5A9F4FFC0180819181DA
:1021C0000197F1F79E012F5A3F4FD9018D939C93B0
:1021D0000000CE01815B9F4F9E01215B3F4FF901C3
:1021E0002081318121503109DC012D933C93CE01B6
:1021F000815B9F4FFC0180819181892B99F639C0C9
:102200008E01015B1F4FCE01855B9F4FDC016D91FD
:102210007D918D919C910E941C1ECC55DF4F68834F
:1022200079838A839B83C45AD040CC55DF4F288161
:102230003981C45AD040F80131832083CE018D5AB0
:102240009F4F9E01215B3F4FD9012D913C91FC0195
:1022500031832083CE018D5A9F4FDC018D919C915B
:102260000197F1F79E012D5A3F4FF9019183808329
:1022700000000E94660484E890E00E94230480E04D
:1022800090E0A6E9B3E489AF9AAFABAFBCAF20E072
:1022900030E04AE755E469AD7AAD8BAD9CAD0E9464
:1022A0009D1EC855DF4F688379838A839B83C85AF4
:1022B000D040CE01CD96C855DF4F288139814A8163
:1022C0005B81C85AD040DC012D933D934D935C93C4
:1022D000139720E030E040E85FE3CE01CD96FC01AB
:1022E00060817181828193810E94171E88234CF442
:1022F000CE018F5B9F4F21E030E0DC012D933C93BA
:102300009CC020E03FEF4FE757E4CE01CD96FC01A3
:1023100060817181828193810E94981E18160CF051
:102320006FC020E030E040E251E469AD7AAD8BADA2
:102330009CAD0E949D1EC455DF4F688379838A83BC
:102340009B83CC5AD040C455DF4F288139814A81C4
:102350005B81CC5AD040C458DF4F288339834A83ED
:102360005B83CC57D0408E010F5B1F4FC458DF4FAB
:10237000688179818A819B81CC57D0400E941C1E44
:10238000C055DF4F688379838A839B83C05BD040CD
:10239000C055DF4FE881F981C05BD040D801ED9393
:1023A000FC9325C0CE018D5B9F4F20E931E0DC011D
:1023B0002D933C93CE018D5B9F4FFC0180819181D9
:1023C0000197F1F79E012D5B3F4FD9018D939C93AF
:1023D0000000CE018F5B9F4F9E012F5B3F4FF901A5
:1023E0002081318121503109DC012D933C93CE01B4
:1023F0008F5B9F4FFC0180819181892B99F638C0BA
:102400008E010F5B1F4FCE01CD96DC016D917D914A
:102410008D919C910E941C1ECC54DF4F6883798360
:102420008A839B83C45BD040CC54DF4F28813981A1
:10243000C45BD040F80131832083CE018B5B9F4F7A
:102440009E012F5B3F4FD9012D913C91FC013183BF
:102450002083CE018B5B9F4FDC018D919C91019776
:10246000F1F79E012B5B3F4FF901918380830000C0
:102470000E94660484E990E00E94230480E090E0DA
:10248000A6E9B3E48BA79CA7ADA7BEA720E030E0E8
:102490004AE755E46BA57CA58DA59EA50E949D1ECF
:1024A000C854DF4F688379838A839B83C85BD0409D
:1024B000C854DF4F288139814A815B81C85BD04095
:1024C0002FA738AB49AB5AAB20E030E040E85FE3E0
:1024D0006FA578A989A99AA90E94171E88232CF4B0
:1024E00081E090E09CAB8BAB71C020E03FEF4FE709
:1024F00057E46FA578A989A99AA90E94981E181671
:102500000CF04EC020E030E040E251E46BA57CA529
:102510008DA59EA50E949D1EC454DF4F68837983BC
:102520008A839B83CC5BD040C454DF4F88819981E0
:10253000AA81BB81CC5BD040EC968CAF9DAFAEAF97
:10254000BFAFEC97EC966CAD7DAD8EAD9FADEC97CB
:102550000E941C1EC054DF4F688379838A839B834B
:10256000C05CD040C054DF4FA881B981C05CD0406E
:10257000BCABABAB10C080E991E09EAB8DAB8DA93D
:102580009EA90197F1F79EAB8DAB00008BA99CA98A
:1025900001979CAB8BAB8BA99CA9892B61F721C0C0
:1025A0006FA578A989A99AA90E941C1ECC53DF4F58
:1025B000688379838A839B83C45CD040CC53DF4F8C
:1025C000E881F981C45CD040FCABEBAB8BA99CA942
:1025D00098AF8FAB8FA998AD0197F1F798AF8FABFC
:1025E00000000E94660483EA90E00E94230480E0D9
:1025F00090E0A6E9B3E48D8F9E8FAF8FB8A320E063
:1026000030E04AE755E46D8D7E8D8F8D98A10E9454
:102610009D1EC853DF4F688379838A839B83C85C80
:10262000D040C853DF4F288139814A815B81C85C23
:10263000D04029A33AA34BA35CA320E030E040E8BC
:102640005FE369A17AA18BA19CA10E94171E882338
:102650002CF481E090E09EA38DA371C020E03FEFB9
:102660004FE757E469A17AA18BA19CA10E94981E13
:1026700018160CF04EC020E030E040E251E46D8DC1
:102680007E8D8F8D98A10E949D1EC453DF4F68835D
:1026900079838A839B83CC5CD040C453DF4F88818D
:1026A0009981AA81BB81CC5CD040E8968CAF9DAF6C
:1026B000AEAFBFAFE897E8966CAD7DAD8EAD9FAD88
:1026C000E8970E941C1EC053DF4F688379838A837A
:1026D0009B83C05DD040C053DF4FA881B981C05DEE
:1026E000D040BEA3ADA310C080E991E098A78FA30E
:1026F0008FA198A50197F1F798A78FA300008DA14E
:102700009EA101979EA38DA38DA19EA1892B61F708
:1027100021C069A17AA18BA19CA10E941C1ECC5250
:10272000DF4F688379838A839B83C45DD040CC521A
:10273000DF4FE881F981C45DD040FEA3EDA38DA1F8
:102740009EA19AA789A789A59AA50197F1F79AA7AB
:1027500089A700000E94660483EB90E00E94230496
:1027600080E090E0A6E9B3E48F87988BA98BBA8BC1
:1027700020E030E04AE755E46F85788989899A89B5
:102780000E949D1EC852DF4F688379838A839B8392
:10279000C85DD040C852DF4F288139814A815B81B2
:1027A000C85DD0402B8B3C8B4D8B5E8B20E030E0A6
:1027B00040E85FE36B897C898D899E890E94171EA2
:1027C00088232CF481E090E0988F8F8B71C020E0FB
:1027D0003FEF4FE757E46B897C898D899E890E9482
:1027E000981E18160CF04EC020E030E040E251E494
:1027F0006F85788989899A890E949D1EC452DF4F0E
:10280000688379838A839B83CC5DD040C452DF4F39
:1028100088819981AA81BB81CC5DD040E4968CAF40
:102820009DAFAEAFBFAFE497E4966CAD7DAD8EAD1E
:102830009FADE4970E941C1EC052DF4F68837983CE
:102840008A839B83C05ED040C052DF4FA881B9818C
:10285000C05ED040B88FAF8B10C080E991E09A8FF6
:10286000898F898D9A8D0197F1F79A8F898F000052
:102870008F89988D0197988F8F8B8F89988D892B51
:1028800061F721C06B897C898D899E890E941C1EFD
:10289000CC51DF4F688379838A839B83C45ED040A9
:1028A000CC51DF4FE881F981C45ED040F88FEF8BC7
:1028B0008F89988D9C8F8B8F8B8D9C8D0197F1F7D5
:1028C0009C8F8B8F00000E94660482EC90E00E9437
:1028D000230480E090E0A6E9B3E489839A83AB8384
:1028E000BC8320E030E04AE755E469817A818B813E
:1028F0009C810E949D1EC851DF4F688379838A8323
:102900009B83C85ED040C851DF4F288139814A81FE
:102910005B81C85ED0402D833E834F83588720E083
:1029200030E040E85FE36D817E818F8198850E9471
:10293000171E88232CF481E090E09A87898771C064
:1029400020E03FEF4FE757E46D817E818F819885CE
:102950000E94981E18160CF04EC020E030E040E2B5
:1029600051E469817A818B819C810E949D1EC451B2
:10297000DF4F688379838A839B83CC5ED040C451C8
:10298000DF4F88819981AA81BB81CC5ED040E096DF
:102990008CAF9DAFAEAFBFAFE097E0966CAD7DADB5
:1029A0008EAD9FADE0970E941C1EC051DF4F688323
:1029B00079838A839B83C05FD040C051DF4FA88159
:1029C000B981C05FD040BA87A98710C080E991E083
:1029D0009C878B878B859C850197F1F79C878B87DC
:1029E000000089859A8501979A87898789859A85C4
:1029F000892B61F721C06D817E818F8198850E942E
:102A00001C1ECC50DF4F688379838A839B83C45F0D
:102A1000D040CC50DF4FE881F981C45FD040FA87C5
:102A2000E98789859A859E878D878D859E85019703
:102A3000F1F79E878D8700000E94660483E295E18E
:102A40000E949D1CFBCFCF93DF930F92CDB7DEB7D3
:102A5000898360E080E00E944E0489810E94150411
:102A600089810E94381500000F90DF91CF91089561
:102A7000CF93DF93CDB7DEB7A3970FB6F894DEBF41
:102A80000FBECDBF8F878F85882F90E0863391054D
:102A900009F48BC0873391050CF09DC085339105F7
:102AA00009F46DC0863391050CF095C0843391050F
:102AB00009F44FC0853391050CF08DC08333910527
:102AC000B1F1843391050CF086C08133910519F082
:102AD000C297B9F080C060E070E081E00E941A18EF
:102AE00063E080E00E944E0488ED90E00E942304A1
:102AF00060E081E00E944E0486EE90E00E94230494
:102B000008C160E070E082E00E941A1863E080E093
:102B10000E944E0484EF90E00E94230460E081E074
:102B20000E944E0486EE90E00E942304F2C060E012
:102B300070E083E00E941A1863E080E00E944E0477
:102B400082E091E00E94230460E081E00E944E0454
:102B5000E0C060E070E084E00E941A1863E080E06A
:102B60000E944E0480E191E00E94230460E081E035
:102B70000E944E0486EE90E00E942304CAC060E0EA
:102B800070E085E00E941A1863E080E00E944E0425
:102B90008EE191E00E94230460E081E00E944E04F7
:102BA00086EE90E00E942304B4C060E070E086E00E
:102BB0000E941A1863E080E00E944E048CE291E0CB
:102BC0000E94230460E081E00E944E0486EE90E0C3
:102BD0000E9423049EC04FE063E080E00E947104E5
:102BE00060E081E00E944E048AE391E00E942304A9
:102BF00080E090E0A8E4B3E489839A83AB83BC834C
:102C000020E030E04AE755E469817A818B819C813C
:102C10000E949D1E6C8B7D8B8E8B9F8B8C899D89DA
:102C2000AE89BF898D839E83AF83B88720E030E073
:102C300040E85FE36D817E818F8198850E94171E39
:102C400088232CF481E090E09A87898754C020E0A3
:102C50003FEF4FE757E46D817E818F8198850E9419
:102C6000981E1816D4F520E030E040E251E4698166
:102C70007A818B819C810E949D1E688F798F8A8FBB
:102C80009B8F888D998DAA8DBB8D888B998BAA8BF4
:102C9000BB8B688979898A899B890E941C1E6C8FED
:102CA0007D8F8E8F9F8FAC8DBD8DBA87A98710C009
:102CB00080E991E09C878B878B859C850197F1F754
:102CC0009C878B87000089859A8501979A878987D9
:102CD00089859A85892B61F719C06D817E818F81E5
:102CE00098850E941C1E68A379A38AA39BA388A130
:102CF00099A19A87898789859A859E878D878D85F1
:102D00009E850197F1F79E878D8700000E946604DB
:102D100000000000A3960FB6F894DEBF0FBECDBF33
:102D2000DF91CF910895CF93DF9300D0CDB7DEB779
:102D30008A8381E089838DE290E0FC0120818DE22D
:102D400090E02F7DFC0120838DE290E0FC0120814A
:102D50008DE290E02860FC0120838DE290E0FC0190
:102D600020818DE290E02460FC01208341E065E059
:102D700081E00E94490040E066E081E00E94490055
:102D800041E067E081E00E94490041E064E081E0C9
:102D90000E94490041E067E081E00E9446018DE227
:102DA00090E0FC0120818DE290E02061FC01208315
:102DB0008DE290E0FC0120818DE290E02E7FFC010D
:102DC00020838DE290E0FC0120818DE290E02D7F58
:102DD000FC0120838EE290E0FC0120818EE290E0F5
:102DE0002E7FFC0120838A818330B0F58DE290E054
:102DF000FC018081882F90E09C012C7F33278A8101
:102E0000882F90E083709927282B392B8DE290E052
:102E1000FC018081982F822F292F282B8DE290E0B2
:102E2000FC0120838A81843048F08EE290E0FC012E
:102E300020818EE290E02160FC0120838DE290E011
:102E4000FC0120818DE290E02064FC01208310923F
:102E500049011092480101C0198289810F900F9099
:102E6000DF91CF910895CF93DF930F92CDB7DEB767
:102E700081E089838DE290E0FC0120818DE290E089
:102E80002F7DFC0120838DE290E0FC0120818DE20A
:102E900090E02860FC0120838DE290E0FC0120811D
:102EA0008DE290E02460FC01208340E065E081E059
:102EB0000E94490041E066E081E00E94490040E054
:102EC00067E081E00E94490040E064E081E00E9408
:102ED00049008DE290E0FC0120818DE290E02F7EA0
:102EE000FC0120838DE290E0FC0120818DE290E0E6
:102EF0002064FC01208310924B0110924A018981C9
:102F00000F90DF91CF910895CF93DF9300D00F9270
:102F1000CDB7DEB789837B836A838DE290E0FC01C5
:102F200020818DE290E02F77FC0120838FE290E0FA
:102F30002981FC01208340E064E081E00E94460199
:102F40008DE290E0FC0120818DE290E02064FC01A4
:102F5000208300008EE290E0FC018081881F88279A
:102F6000881F882F90E081709927019799F78FE249
:102F700090E0FC0120818A819B81FC0120838DE20D
:102F800090E0FC0120818DE290E02F7BFC0120830A
:102F900041E064E081E00E94460100000F900F9044
:102FA0000F90DF91CF910895CF93DF9300D00F92D0
:102FB000CDB7DEB789837B836A838DE290E0FC0125
:102FC00020818DE290E02F77FC0120838FE290E05A
:102FD0002981FC0120838DE290E0FC0120818DE2BB
:102FE00090E02064FC01208300008EE290E0FC0170
:102FF0008081881F8827881F882F90E081709927FB
:10300000019799F78FE290E0FC0120818A819B81F2
:10301000FC0120838DE290E0FC0120818DE290E0B4
:103020002F7BFC01208300000F900F900F90DF9109
:10303000CF910895CF93DF9300D00F92CDB7DEB735
:1030400089837B836A83809168008A3071F58FE57C
:1030500090E0FC0120818FE590E02068FC01208356
:103060008A819B8190934901809348018DE290E091
:10307000FC0120818DE290E02068FC0120838FE23A
:1030800090E02981FC01208340E064E081E00E941F
:10309000460181E0809368008DE290E0FC01208190
:1030A0008DE290E02064FC01208300000F900F90DF
:1030B0000F90DF91CF910895CF93DF9300D00F92BF
:1030C000CDB7DEB789837B836A83809168008A30BD
:1030D00041F58FE590E0FC0120818FE590E02068CC
:1030E000FC0120838A819B8190934B0180934A014C
:1030F0008DE290E0FC0120818DE290E02068FC01EF
:103100002083109268008FE290E02981FC012083E7
:103110008DE290E0FC0120818DE290E02064FC01D2
:10312000208300000F900F900F90DF91CF910895B2
:10313000CF93DF93CDB7DEB7A8970FB6F894DEBF75
:103140000FBECDBF9A8B898B7C8B6B8B1A821982B9
:10315000A1C029893A8989819A81820F931FDC0154
:103160002C918B899C89BC01822F0E941A1889811D
:103170009A8101969A83898380E090E0A0E8BFE37A
:103180008B839C83AD83BE8320E030E04AEF54E420
:103190006B817C818D819E810E949D1E698F7A8FBB
:1031A0008B8F9C8F898D9A8DAB8DBC8D8F839887EB
:1031B000A987BA8720E030E040E85FE36F81788537
:1031C00089859A850E94171E88232CF481E090E05F
:1031D0009C878B8754C020E03FEF4FE757E46F8117
:1031E000788589859A850E94981E1816D4F520E066
:1031F00030E040E251E46B817C818D819E810E94B0
:103200009D1E6D8F7E8F8F8F98A38D8D9E8DAF8D20
:10321000B8A18D8B9E8BAF8BB88F6D897E898F897E
:10322000988D0E941C1E69A37AA38BA39CA3A9A1BD
:10323000BAA1BC87AB8710C088EC90E09E878D87D1
:103240008D859E850197F1F79E878D8700008B8580
:103250009C8501979C878B878B859C85892B61F743
:1032600019C06F81788589859A850E941C1E6DA37F
:103270007EA38FA398A7EDA1FEA1FC87EB878B858A
:103280009C85988B8F878F8598890197F1F7988B0C
:103290008F87000029893A8989819A81820F931F3B
:1032A000DC018C91882309F054CF00000000A8961F
:1032B0000FB6F894DEBF0FBECDBFDF91CF9108955A
:1032C000CF93DF9300D000D000D0CDB7DEB79C8382
:1032D0008B837E836D831A82198213C02B813C817C
:1032E00089819A81820F931FFC0120818D819E81AB
:1032F000BC01822F0E945C1889819A8101969A8371
:1033000089832B813C8189819A81820F931FFC01E3
:103310008081882319F70000000026960FB6F894E4
:10332000DEBF0FBECDBFDF91CF9108951F920F92E8
:103330000FB60F9211242F933F934F935F936F9388
:103340007F938F939F93AF93BF93EF93FF93CF930D
:10335000DF93CDB7DEB780916800813049F5809169
:10336000480190914901892B09F442C020914801FC
:10337000309149018FE290E0FC018081F9010995CB
:103380008DE290E0FC0120818DE290E02F7BFC013A
:1033900020838DE290E0FC0120818DE290E02F7788
:1033A000FC01208341E064E081E00E94460120C0EE
:1033B000809168008823E1F48DE290E0FC01208197
:1033C0008DE290E02F77FC01208320914A0130911B
:1033D0004B018FE290E0FC018081F90109958DE2BB
:1033E00090E0FC0120818DE290E02F7BFC012083A6
:1033F0008AE0809368000000DF91CF91FF91EF9108
:10340000BF91AF919F918F917F916F915F914F91FC
:103410003F912F910F900FBE0F901F901895CF9353
:10342000DF9300D000D000D00F92CDB7DEB79D83E0
:103430008C837F836E831A8219821B821BC08981D1
:103440009A812C813D81820F931FFC0140818981EB
:103450009A812E813F81820F931FFC018081481742
:1034600019F481E08B8301C01B8289819A810196C6
:103470009A83898389819A812E813F81820F931F4C
:10348000FC0180818823D9F68B8127960FB6F894AA
:10349000DEBF0FBECDBFDF91CF9108950F931F9375
:1034A000CF93DF93CDB7DEB729970FB6F894DEBF81
:1034B0000FBECDBF9D838C8381E0898380E490E043
:1034C000DC012C9180E490E02068FC01208380E402
:1034D00090E0DC012C9180E490E02F7DFC012083C2
:1034E00080E490E0DC012C9180E490E02F7EFC01F0
:1034F000208380E490E0DC012C9180E490E0277F41
:10350000FC01208380E490E0DC012C9180E490E0D9
:103510002F7BFC01208310924D018C819D81DC0169
:1035200014968C918823E1F480E490E0FC012081E2
:1035300080E490E02D7FDC012C9380E490E0FC019E
:10354000208180E490E02B7FDC012C938AE290E0E4
:10355000FC0120818AE290E02B7FDC012C938EC05D
:103560008C819D81FC0184818130E1F480E490E0D4
:10357000DC012C9180E490E02260FC01208380E457
:1035800090E0DC012C9180E490E02B7FFC01208313
:103590008AE290E0DC012C918AE290E02B7FFC0132
:1035A00020836CC08C819D81DC0114968C918230CB
:1035B000E1F480E490E0FC01208180E490E02D7F44
:1035C000DC012C9380E490E0FC01208180E490E019
:1035D0002460DC012C938AE290E0FC0120818AE2E5
:1035E00090E02B7FDC012C9349C08C819D81FC01F4
:1035F00084818330E1F480E490E0DC012C9180E46C
:1036000090E02260FC01208380E490E0DC012C91BA
:1036100080E490E02460FC0120838AE290E0DC01F9
:103620002C918AE290E02B7FFC01208327C08C81C3
:103630009D81DC0114968C918730F9F480E490E050
:10364000FC01208180E490E02260DC012C9380E486
:1036500090E0FC01208180E490E02460DC012C9368
:103660008AE290E0FC0120818AE290E02460DC01A3
:103670002C9381E080934D0101C019828C819D8142
:10368000FC01858180934C018C819D81DC01159624
:103690008C91813051F48FE590E0FC0120818FE521
:1036A00090E02068DC012C931AC08C819D81FC0184
:1036B0008581882399F48AE290E0DC012C918AE2EA
:1036C00090E02F77FC0120838AE290E0DC012C91CE
:1036D0008AE290E02F7DFC01208301C019828C8159
:1036E0009D81FC0180819181A281B381880F991F06
:1036F000AA1FBB1F880F991FAA1FBB1F880F991FE6
:10370000AA1FBB1F880F991FAA1FBB1F8C019D01F9
:1037100080E092E1AAE7B0E08E839F83A887B98713
:103720006E817F8188859985A90198010E94E61D97
:10373000DA01C90101979B838A838A819B818F3F2C
:10374000910509F030F489E290E02A81DC012C93A4
:1037500016C080E490E0FC01208180E490E02F77A7
:10376000DC012C938A819B81292F332780E490E010
:10377000FC01208389E290E02A81DC012C9389817D
:1037800029960FB6F894DEBF0FBECDBFDF91CF9163
:103790001F910F910895CF93DF9300D00F92CDB773
:1037A000DEB79B838A8381E089838AE290E0FC0113
:1037B00020818AE290E02860FC01208300008BE2F7
:1037C00090E0FC018081829586958770882F90E03B
:1037D00081709927019799F780914D018130E1F42B
:1037E00080E490E0FC018081382F3F7B8A819B81BF
:1037F000892F992786958295880F880F807C282F9E
:10380000207480E490E0232BFC0120838CE290E084
:103810002A81FC01208305C08CE290E02A81FC0112
:10382000208300008BE290E0FC01808182958695E8
:1038300086958370882F90E081709927019791F782
:103840008BE290E0FC0120818BE290E02064FC019F
:10385000208389810F900F900F90DF91CF91089571
:10386000CF93DF9300D00F92CDB7DEB79B838A83CF
:1038700081E089838AE290E0FC0120818AE290E085
:103880002061FC01208300008BE290E0FC0180813C
:10389000881F8827881F882F90E0817099270197BB
:1038A00099F700008BE290E0FC018081829586957B
:1038B0008770882F90E081709927019799F7809100
:1038C0004D01813041F58A819B81FC01808191818C
:1038D0009C013D7F80E490E0FC018081881F882767
:1038E000881F882F90E0982F8827990F882792703B
:1038F000282B392B8A819B81FC01318320838CE228
:1039000090E0FC018081282F30E08A819B81FC01BE
:10391000318320830BC08CE290E0FC018081282F52
:1039200030E08A819B81FC013183208389810F9063
:103930000F900F90DF91CF910895CF93DF9300D038
:103940000F92CDB7DEB79B838A8381E089838A811A
:103950009B81892BC9F08AE290E0FC0120818AE2F8
:1039600090E02061FC0120838AE290E0FC0120814C
:103970008AE290E02068FC0120838A819B819093F9
:1039800051018093500101C0198289810F900F90DD
:103990000F90DF91CF9108951F920F920FB60F9263
:1039A00011242F933F934F935F936F937F938F9344
:1039B0009F93AF93BF93EF93FF93CF93DF9300D089
:1039C000CDB7DEB78091500190915101892B09F458
:1039D0004FC080914D01813069F589819A819C01A8
:1039E0003D7F80E490E0FC018081881F8827881F4C
:1039F000882F90E0982F8827990F88279270822B24
:103A0000932B9A83898300008BE290E0FC018081F4
:103A1000829586958770882F90E08170992701970D
:103A200099F78CE290E0FC018081882F90E09A83E6
:103A3000898316C000008BE290E0FC0180818295B2
:103A400086958770882F90E081709927019799F764
:103A50008CE290E0FC018081882F90E09A8389833A
:103A6000209150013091510189819A81F901099584
:103A700000000F900F90DF91CF91FF91EF91BF91D8
:103A8000AF919F918F917F916F915F914F913F91F6
:103A90002F910F900FBE0F901F901895CF93DF932B
:103AA00000D00F92CDB7DEB79B838A8381E08983F4
:103AB0008A819B81892BC9F08AE290E0FC012081F8
:103AC0008AE290E02860FC0120838A819B819093A8
:103AD0004F0180934E018AE290E0FC0120818AE24E
:103AE00090E02062FC01208301C0198289810F903F
:103AF0000F900F90DF91CF9108951F920F920FB604
:103B00000F9211242F933F938F939F93EF93FF93E3
:103B1000CF93DF93CDB7DEB780914E0190914F01E7
:103B2000FC01208131818CE290E0FC0120830000C7
:103B30008BE290E0FC01808182958695869583706A
:103B4000882F90E081709927019791F78BE290E0A0
:103B5000FC0120818BE290E02064FC0120838AE25A
:103B600090E0FC0120818AE290E02F7DFC0120831F
:103B70000000DF91CF91FF91EF919F918F913F9145
:103B80002F910F900FBE0F901F901895CF93DF933A
:103B90000F92CDB7DEB789838CE290E02981FC01DA
:103BA000208300008BE290E0FC0180818295869565
:103BB00086958370882F90E081709927019791F7FF
:103BC000000000000F90DF91CF910895A1E21A2E1E
:103BD000AA1BBB1BFD010DC0AA1FBB1FEE1FFF1FB1
:103BE000A217B307E407F50720F0A21BB30BE40B01
:103BF000F50B661F771F881F991F1A9469F7609548
:103C00007095809590959B01AC01BD01CF01089501
:103C1000A29FB001B39FC001A39F700D811D11240D
:103C2000911DB29F700D811D1124911D08950E9458
:103C30004B1E08F481E008950E94771E88F09F577C
:103C400098F0B92F9927B751B0F0E1F0660F771FC0
:103C5000881F991F1AF0BA95C9F714C0B13091F0B6
:103C60000E94911EB1E008950C94911E672F782F49
:103C70008827B85F39F0B93FCCF38695779567957B
:103C8000B395D9F73EF490958095709561957F4FE7
:103C90008F4F9F4F0895990F0008550FAA0BE0E82A
:103CA000FEEF16161706E807F907C0F012161306FE
:103CB000E407F50798F0621B730B840B950B39F43E
:103CC0000A2661F0232B242B252B21F408950A26A4
:103CD00009F4A140A6958FEF811D811D089557FD20
:103CE0009058440F551F59F05F3F71F04795880F6A
:103CF00097FB991F61F09F3F79F087950895121601
:103D000013061406551FF2CF4695F1DF08C01616AC
:103D100017061806991FF1CF86957105610508945D
:103D20000895E894BB2766277727CB0197F9089574
:103D30000E944B1E08F48FEF08950E94B01E0C9451
:103D4000211F0E94131F38F00E941A1F20F0952394
:103D500011F00C940A1F0C94101F11240C94921E45
:103D60000E946F1E70F3959FC1F3950F50E0551F91
:103D7000629FF001729FBB27F00DB11D639FAA27C0
:103D8000F00DB11DAA1F649F6627B00DA11D661F0F
:103D9000829F2227B00DA11D621F739FB00DA11D30
:103DA000621F839FA00D611D221F749F3327A00DEA
:103DB000611D231F849F600D211D822F762F6A2F86
:103DC00011249F5750409AF0F1F088234AF0EE0FEB
:103DD000FF1FBB1F661F771F881F91505040A9F718
:103DE0009E3F510580F00C940A1F0C94921E5F3F79
:103DF000E4F3983ED4F3869577956795B795F79554
:103E0000E7959F5FC1F7FE2B880F911D96958795CB
:103E100097F9089597F99F6780E870E060E008954A
:103E20009FEF80EC089500240A94161617061806D2
:103E30000906089500240A941216130614060506AE
:103E40000895092E0394000C11F4882352F0BB0F3F
:103E500040F4BF2B11F460FF04C06F5F7F4F8F4FA2
:083E60009F4F0895F894FFCF75
:103E680000001F19191901010A48656C6C6F2C5361
:103E780069722E2E0031207475726E206F6E206C60
:103E88006564310032207475726E206F6666206C2E
:103E98006564310033207475726E206F6E206C6516
:103EA80064320034207475726E206F6666206C650B
:103EB80064320035207475726E206F6E206C6564F4
:103EC800330036207475726E206F6666206C6564E8
:103ED80033008025000003013A204C454431206915
:103EE80073206F6E20004F726465722069732044DE
:103EF8006F6E65003A204C454431206973204F6647
:103F080066003A204C454432206973206F6E2000C9
:103F18003A204C454432206973204F6666003A20A7
:103F28004C454433206973204F6E20003A204C459D
:103F38004433206973204F66660057726F6E67209E
:083F48002041636365737300FF
:00000001FF
